{
  "_format": "hh-sol-artifact-1",
  "contractName": "FomoOE",
  "sourceName": "contracts/FomoOE.sol",
  "abi": [
    {
      "inputs": [],
      "stateMutability": "nonpayable",
      "type": "constructor"
    },
    {
      "anonymous": false,
      "inputs": [
        {
          "indexed": false,
          "internalType": "uint256",
          "name": "_amount",
          "type": "uint256"
        },
        {
          "indexed": false,
          "internalType": "address",
          "name": "_winning",
          "type": "address"
        }
      ],
      "name": "keysPurchased",
      "type": "event"
    },
    {
      "inputs": [],
      "name": "balanceReceived",
      "outputs": [
        {
          "internalType": "uint256",
          "name": "",
          "type": "uint256"
        }
      ],
      "stateMutability": "view",
      "type": "function"
    },
    {
      "inputs": [],
      "name": "developerOnePercent",
      "outputs": [
        {
          "internalType": "uint256",
          "name": "",
          "type": "uint256"
        }
      ],
      "stateMutability": "view",
      "type": "function"
    },
    {
      "inputs": [
        {
          "internalType": "address",
          "name": "_developerAddress",
          "type": "address"
        }
      ],
      "name": "developerOnePercentAllocation",
      "outputs": [],
      "stateMutability": "nonpayable",
      "type": "function"
    },
    {
      "inputs": [],
      "name": "divPool",
      "outputs": [
        {
          "internalType": "uint256",
          "name": "",
          "type": "uint256"
        }
      ],
      "stateMutability": "view",
      "type": "function"
    },
    {
      "inputs": [
        {
          "internalType": "address",
          "name": "",
          "type": "address"
        }
      ],
      "name": "divTracker",
      "outputs": [
        {
          "internalType": "uint256",
          "name": "_keyBalance",
          "type": "uint256"
        },
        {
          "internalType": "uint256",
          "name": "_divBalance",
          "type": "uint256"
        },
        {
          "internalType": "uint256",
          "name": "_withdrawnAmount",
          "type": "uint256"
        },
        {
          "internalType": "bool",
          "name": "_voted",
          "type": "bool"
        },
        {
          "internalType": "bool",
          "name": "_boughtKeys",
          "type": "bool"
        }
      ],
      "stateMutability": "view",
      "type": "function"
    },
    {
      "inputs": [],
      "name": "getTimeLeft",
      "outputs": [
        {
          "internalType": "uint256",
          "name": "",
          "type": "uint256"
        }
      ],
      "stateMutability": "view",
      "type": "function"
    },
    {
      "inputs": [],
      "name": "getWinner",
      "outputs": [
        {
          "internalType": "address",
          "name": "",
          "type": "address"
        }
      ],
      "stateMutability": "view",
      "type": "function"
    },
    {
      "inputs": [],
      "name": "giveToDeveloper",
      "outputs": [
        {
          "internalType": "uint256",
          "name": "",
          "type": "uint256"
        }
      ],
      "stateMutability": "view",
      "type": "function"
    },
    {
      "inputs": [],
      "name": "giveToJackpot",
      "outputs": [
        {
          "internalType": "uint256",
          "name": "",
          "type": "uint256"
        }
      ],
      "stateMutability": "view",
      "type": "function"
    },
    {
      "inputs": [],
      "name": "increased_order",
      "outputs": [
        {
          "internalType": "uint256",
          "name": "",
          "type": "uint256"
        }
      ],
      "stateMutability": "view",
      "type": "function"
    },
    {
      "inputs": [],
      "name": "jackpot",
      "outputs": [
        {
          "internalType": "uint256",
          "name": "",
          "type": "uint256"
        }
      ],
      "stateMutability": "view",
      "type": "function"
    },
    {
      "inputs": [],
      "name": "jackpotPayout",
      "outputs": [],
      "stateMutability": "nonpayable",
      "type": "function"
    },
    {
      "inputs": [],
      "name": "keyPrice",
      "outputs": [
        {
          "internalType": "uint256",
          "name": "",
          "type": "uint256"
        }
      ],
      "stateMutability": "view",
      "type": "function"
    },
    {
      "inputs": [],
      "name": "keyPriceIncreaseBlockNumber",
      "outputs": [
        {
          "internalType": "uint256",
          "name": "",
          "type": "uint256"
        }
      ],
      "stateMutability": "view",
      "type": "function"
    },
    {
      "inputs": [],
      "name": "keyPurchases",
      "outputs": [
        {
          "internalType": "uint256",
          "name": "",
          "type": "uint256"
        }
      ],
      "stateMutability": "view",
      "type": "function"
    },
    {
      "inputs": [],
      "name": "multiplier",
      "outputs": [
        {
          "internalType": "uint256",
          "name": "",
          "type": "uint256"
        }
      ],
      "stateMutability": "view",
      "type": "function"
    },
    {
      "inputs": [
        {
          "internalType": "uint256",
          "name": "_amount",
          "type": "uint256"
        }
      ],
      "name": "purchaseKeys",
      "outputs": [],
      "stateMutability": "payable",
      "type": "function"
    },
    {
      "inputs": [],
      "name": "startTime",
      "outputs": [
        {
          "internalType": "uint256",
          "name": "",
          "type": "uint256"
        }
      ],
      "stateMutability": "view",
      "type": "function"
    },
    {
      "inputs": [],
      "name": "timeLeft",
      "outputs": [
        {
          "internalType": "uint256",
          "name": "",
          "type": "uint256"
        }
      ],
      "stateMutability": "view",
      "type": "function"
    },
    {
      "inputs": [],
      "name": "totalKeys",
      "outputs": [
        {
          "internalType": "uint256",
          "name": "",
          "type": "uint256"
        }
      ],
      "stateMutability": "view",
      "type": "function"
    },
    {
      "inputs": [],
      "name": "totalTime",
      "outputs": [
        {
          "internalType": "uint256",
          "name": "",
          "type": "uint256"
        }
      ],
      "stateMutability": "view",
      "type": "function"
    },
    {
      "inputs": [
        {
          "internalType": "address",
          "name": "_userAddress",
          "type": "address"
        }
      ],
      "name": "updateDivvies",
      "outputs": [
        {
          "internalType": "uint256",
          "name": "",
          "type": "uint256"
        }
      ],
      "stateMutability": "view",
      "type": "function"
    },
    {
      "inputs": [
        {
          "internalType": "bool",
          "name": "_vote",
          "type": "bool"
        }
      ],
      "name": "voteForOnePercent",
      "outputs": [],
      "stateMutability": "nonpayable",
      "type": "function"
    },
    {
      "inputs": [
        {
          "internalType": "address",
          "name": "_userAddress",
          "type": "address"
        }
      ],
      "name": "whoWon",
      "outputs": [
        {
          "internalType": "address",
          "name": "winner",
          "type": "address"
        }
      ],
      "stateMutability": "view",
      "type": "function"
    },
    {
      "inputs": [],
      "name": "withdrawDivvies",
      "outputs": [],
      "stateMutability": "nonpayable",
      "type": "function"
    }
  ],
  "bytecode": "0x6080604052660bf5f72abe6810600955660bf5f72abe6810600a556064600c5534801561002b57600080fd5b50336000806101000a81548173ffffffffffffffffffffffffffffffffffffffff021916908373ffffffffffffffffffffffffffffffffffffffff160217905550611e258061007b6000396000f3fe6080604052600436106101665760003560e01c80636b31ee01116100d15780638e7ea5b21161008a578063c7e284b811610064578063c7e284b814610505578063d20bff0214610530578063e02b44d414610547578063e5618fa91461057257610166565b80638e7ea5b21461047257806392c5c06e1461049d578063acf7084a146104c857610166565b80636b31ee011461037f57806378c3171f146103aa57806378e97925146103c65780637c2be5dd146103f157806382f964991461041c5780638b80016b1461044757610166565b80631ebe585d116101235780631ebe585d1461027d578063488bdabc1461029457806352a90c42146102bf57806355fcbbff146102ea57806358533e0a1461032b57806369a5ede31461035657610166565b806305b3bd701461016b5780630d153c921461019657806310e56973146101d3578063111d3efb146101fe5780631300a6d1146102275780631b3ed72214610252575b600080fd5b34801561017757600080fd5b5061018061059d565b60405161018d919061187a565b60405180910390f35b3480156101a257600080fd5b506101bd60048036038101906101b891906114d6565b6105a3565b6040516101ca91906116ff565b60405180910390f35b3480156101df57600080fd5b506101e861061b565b6040516101f5919061187a565b60405180910390f35b34801561020a57600080fd5b50610225600480360381019061022091906114ff565b610621565b005b34801561023357600080fd5b5061023c61088c565b604051610249919061187a565b60405180910390f35b34801561025e57600080fd5b50610267610892565b604051610274919061187a565b60405180910390f35b34801561028957600080fd5b50610292610898565b005b3480156102a057600080fd5b506102a9610a9c565b6040516102b6919061187a565b60405180910390f35b3480156102cb57600080fd5b506102d4610aa2565b6040516102e1919061187a565b60405180910390f35b3480156102f657600080fd5b50610311600480360381019061030c91906114d6565b610aa8565b6040516103229594939291906118be565b60405180910390f35b34801561033757600080fd5b50610340610af8565b60405161034d919061187a565b60405180910390f35b34801561036257600080fd5b5061037d600480360381019061037891906114d6565b610afe565b005b34801561038b57600080fd5b50610394610cb2565b6040516103a1919061187a565b60405180910390f35b6103c460048036038101906103bf9190611528565b610cb8565b005b3480156103d257600080fd5b506103db611133565b6040516103e8919061187a565b60405180910390f35b3480156103fd57600080fd5b50610406611139565b604051610413919061187a565b60405180910390f35b34801561042857600080fd5b5061043161113f565b60405161043e919061187a565b60405180910390f35b34801561045357600080fd5b5061045c611145565b604051610469919061187a565b60405180910390f35b34801561047e57600080fd5b5061048761114b565b60405161049491906116ff565b60405180910390f35b3480156104a957600080fd5b506104b2611175565b6040516104bf919061187a565b60405180910390f35b3480156104d457600080fd5b506104ef60048036038101906104ea91906114d6565b61117b565b6040516104fc919061187a565b60405180910390f35b34801561051157600080fd5b5061051a61124d565b604051610527919061187a565b60405180910390f35b34801561053c57600080fd5b5061054561128a565b005b34801561055357600080fd5b5061055c611474565b604051610569919061187a565b60405180910390f35b34801561057e57600080fd5b5061058761147a565b604051610594919061187a565b60405180910390f35b600b5481565b6000806105ae61124d565b1480156106085750600760009054906101000a900473ffffffffffffffffffffffffffffffffffffffff1673ffffffffffffffffffffffffffffffffffffffff168273ffffffffffffffffffffffffffffffffffffffff16145b1561061557819050610616565b5b919050565b60095481565b60003390506000813b90506000811461066f576040517f08c379a00000000000000000000000000000000000000000000000000000000081526004016106669061179a565b60405180910390fd5b60011515601160003373ffffffffffffffffffffffffffffffffffffffff1673ffffffffffffffffffffffffffffffffffffffff16815260200190815260200160002060030160019054906101000a900460ff16151514610705576040517f08c379a00000000000000000000000000000000000000000000000000000000081526004016106fc9061183a565b60405180910390fd5b600061070f61124d565b1161074f576040517f08c379a00000000000000000000000000000000000000000000000000000000081526004016107469061185a565b60405180910390fd5b60001515601160003373ffffffffffffffffffffffffffffffffffffffff1673ffffffffffffffffffffffffffffffffffffffff16815260200190815260200160002060030160009054906101000a900460ff161515146107e5576040517f08c379a00000000000000000000000000000000000000000000000000000000081526004016107dc906117da565b60405180910390fd5b6001601160003373ffffffffffffffffffffffffffffffffffffffff1673ffffffffffffffffffffffffffffffffffffffff16815260200190815260200160002060030160006101000a81548160ff02191690831515021790555060011515831515141561086c576001600260008282546108609190611922565b92505081905550610887565b60016003600082825461087f9190611922565b925050819055505b505050565b60065481565b600c5481565b60003390506000813b9050600081146108e6576040517f08c379a00000000000000000000000000000000000000000000000000000000081526004016108dd9061179a565b60405180910390fd5b60003390506000806000600d5414156109025760009150610a0b565b600f54601160003373ffffffffffffffffffffffffffffffffffffffff1673ffffffffffffffffffffffffffffffffffffffff1681526020019081526020016000206000015461095291906119a9565b9050601160003373ffffffffffffffffffffffffffffffffffffffff1673ffffffffffffffffffffffffffffffffffffffff16815260200190815260200160002060020154600d54826109a59190611978565b6109af9190611a03565b915081601160003373ffffffffffffffffffffffffffffffffffffffff1673ffffffffffffffffffffffffffffffffffffffff1681526020019081526020016000206002016000828254610a039190611922565b925050819055505b60008211610a4e576040517f08c379a0000000000000000000000000000000000000000000000000000000008152600401610a45906117ba565b60405180910390fd5b8273ffffffffffffffffffffffffffffffffffffffff166108fc839081150290604051600060405180830381858888f19350505050158015610a94573d6000803e3d6000fd5b505050505050565b600d5481565b60085481565b60116020528060005260406000206000915090508060000154908060010154908060020154908060030160009054906101000a900460ff16908060030160019054906101000a900460ff16905085565b60055481565b60008054906101000a900473ffffffffffffffffffffffffffffffffffffffff1673ffffffffffffffffffffffffffffffffffffffff163373ffffffffffffffffffffffffffffffffffffffff1614610b8c576040517f08c379a0000000000000000000000000000000000000000000000000000000008152600401610b839061181a565b60405180910390fd5b6000610b9661124d565b14610bd6576040517f08c379a0000000000000000000000000000000000000000000000000000000008152600401610bcd9061171a565b60405180910390fd5b60035460025410610c355760008190508073ffffffffffffffffffffffffffffffffffffffff166108fc6001549081150290604051600060405180830381858888f19350505050158015610c2e573d6000803e3d6000fd5b5050610ca7565b6000600760009054906101000a900473ffffffffffffffffffffffffffffffffffffffff1690508073ffffffffffffffffffffffffffffffffffffffff166108fc6001549081150290604051600060405180830381858888f19350505050158015610ca4573d6000803e3d6000fd5b50505b600060018190555050565b60105481565b60003390506000813b905060008114610d06576040517f08c379a0000000000000000000000000000000000000000000000000000000008152600401610cfd9061179a565b60405180910390fd5b6000600d541480610d1957506005600e54105b15610d2757610d26611480565b5b6000610d3161124d565b11610d71576040517f08c379a0000000000000000000000000000000000000000000000000000000008152600401610d689061177a565b60405180910390fd5b82600954610d7f91906119a9565b3410610e0d5743600b819055506000600c54600954610d9e91906119a9565b905061271081610dae9190611978565b600954610dbb9190611922565b600981905550600a8054600954610dd29190611978565b10158015610de357506014600c5410155b15610e0757600954600a81905550600a600c54610e009190611a03565b600c819055505b50610eab565b6000600c54600954610e1f91906119a9565b9050600061271082610e319190611978565b600954610e3e9190611a03565b90508481610e4c91906119a9565b3410158015610e6957506002600b54610e659190611922565b4311155b610ea8576040517f08c379a0000000000000000000000000000000000000000000000000000000008152600401610e9f9061175a565b60405180910390fd5b50505b6000606434610eba91906119a9565b9050600061271082610ecc9190611978565b905060008134610edc9190611a03565b90506000600282610eed9190611978565b90508260016000828254610f019190611922565b925050819055508060106000828254610f1a9190611922565b925050819055508082610f2d9190611a03565b600f6000828254610f3e9190611922565b9250508190555086601160003373ffffffffffffffffffffffffffffffffffffffff1673ffffffffffffffffffffffffffffffffffffffff1681526020019081526020016000206000016000828254610f979190611922565b925050819055506001601160003373ffffffffffffffffffffffffffffffffffffffff1673ffffffffffffffffffffffffffffffffffffffff16815260200190815260200160002060030160016101000a81548160ff02191690831515021790555086600d600082825461100b9190611922565b92505081905550426005546110209190611a03565b6201518061102e9190611a03565b601e8861103b91906119a9565b111561104e57611049611480565b611074565b601e8761105b91906119a9565b6005600082825461106c9190611922565b925050819055505b6001600e60008282546110879190611922565b9250508190555033600760006101000a81548173ffffffffffffffffffffffffffffffffffffffff021916908373ffffffffffffffffffffffffffffffffffffffff1602179055507fc9cdc97fa2223a1523db8444b75a4978bdc4b7371c256194188681e6a1bcd73b87600760009054906101000a900473ffffffffffffffffffffffffffffffffffffffff16604051611122929190611895565b60405180910390a150505050505050565b60045481565b600f5481565b60035481565b60015481565b6000600760009054906101000a900473ffffffffffffffffffffffffffffffffffffffff16905090565b600e5481565b600080600080600d5414156111935760009150611243565b600f54601160008673ffffffffffffffffffffffffffffffffffffffff1673ffffffffffffffffffffffffffffffffffffffff168152602001908152602001600020600001546111e391906119a9565b9050601160008573ffffffffffffffffffffffffffffffffffffffff1673ffffffffffffffffffffffffffffffffffffffff16815260200190815260200160002060020154600d54826112369190611978565b6112409190611a03565b91505b8192505050919050565b600080600d54141561126457620151809050611287565b4260055410611282574260055461127b9190611a03565b9050611287565b600090505b90565b60003390506000813b9050600081146112d8576040517f08c379a00000000000000000000000000000000000000000000000000000000081526004016112cf9061179a565b60405180910390fd5b60006112e261124d565b14611322576040517f08c379a00000000000000000000000000000000000000000000000000000000081526004016113199061171a565b60405180910390fd5b600060105411611367576040517f08c379a000000000000000000000000000000000000000000000000000000000815260040161135e906117fa565b60405180910390fd5b600760009054906101000a900473ffffffffffffffffffffffffffffffffffffffff1673ffffffffffffffffffffffffffffffffffffffff163373ffffffffffffffffffffffffffffffffffffffff16146113f7576040517f08c379a00000000000000000000000000000000000000000000000000000000081526004016113ee9061173a565b60405180910390fd5b6000600760009054906101000a900473ffffffffffffffffffffffffffffffffffffffff1690508073ffffffffffffffffffffffffffffffffffffffff166108fc6010549081150290604051600060405180830381858888f19350505050158015611466573d6000803e3d6000fd5b506000601081905550505050565b600a5481565b60025481565b620151804261148f9190611922565b600581905550565b6000813590506114a681611daa565b92915050565b6000813590506114bb81611dc1565b92915050565b6000813590506114d081611dd8565b92915050565b6000602082840312156114e857600080fd5b60006114f684828501611497565b91505092915050565b60006020828403121561151157600080fd5b600061151f848285016114ac565b91505092915050565b60006020828403121561153a57600080fd5b6000611548848285016114c1565b91505092915050565b61155a81611a37565b82525050565b61156981611a49565b82525050565b600061157c601583611911565b915061158782611add565b602082019050919050565b600061159f601683611911565b91506115aa82611b06565b602082019050919050565b60006115c2608183611911565b91506115cd82611b2f565b60a082019050919050565b60006115e5601983611911565b91506115f082611bf0565b602082019050919050565b6000611608601183611911565b915061161382611c19565b602082019050919050565b600061162b601c83611911565b915061163682611c42565b602082019050919050565b600061164e601283611911565b915061165982611c6b565b602082019050919050565b6000611671601383611911565b915061167c82611c94565b602082019050919050565b6000611694602a83611911565b915061169f82611cbd565b604082019050919050565b60006116b7602983611911565b91506116c282611d0c565b604082019050919050565b60006116da602283611911565b91506116e582611d5b565b604082019050919050565b6116f981611a75565b82525050565b60006020820190506117146000830184611551565b92915050565b600060208201905081810360008301526117338161156f565b9050919050565b6000602082019050818103600083015261175381611592565b9050919050565b60006020820190508181036000830152611773816115b5565b9050919050565b60006020820190508181036000830152611793816115d8565b9050919050565b600060208201905081810360008301526117b3816115fb565b9050919050565b600060208201905081810360008301526117d38161161e565b9050919050565b600060208201905081810360008301526117f381611641565b9050919050565b6000602082019050818103600083015261181381611664565b9050919050565b6000602082019050818103600083015261183381611687565b9050919050565b60006020820190508181036000830152611853816116aa565b9050919050565b60006020820190508181036000830152611873816116cd565b9050919050565b600060208201905061188f60008301846116f0565b92915050565b60006040820190506118aa60008301856116f0565b6118b76020830184611551565b9392505050565b600060a0820190506118d360008301886116f0565b6118e060208301876116f0565b6118ed60408301866116f0565b6118fa6060830185611560565b6119076080830184611560565b9695505050505050565b600082825260208201905092915050565b600061192d82611a75565b915061193883611a75565b9250827fffffffffffffffffffffffffffffffffffffffffffffffffffffffffffffffff0382111561196d5761196c611a7f565b5b828201905092915050565b600061198382611a75565b915061198e83611a75565b92508261199e5761199d611aae565b5b828204905092915050565b60006119b482611a75565b91506119bf83611a75565b9250817fffffffffffffffffffffffffffffffffffffffffffffffffffffffffffffffff04831182151516156119f8576119f7611a7f565b5b828202905092915050565b6000611a0e82611a75565b9150611a1983611a75565b925082821015611a2c57611a2b611a7f565b5b828203905092915050565b6000611a4282611a55565b9050919050565b60008115159050919050565b600073ffffffffffffffffffffffffffffffffffffffff82169050919050565b6000819050919050565b7f4e487b7100000000000000000000000000000000000000000000000000000000600052601160045260246000fd5b7f4e487b7100000000000000000000000000000000000000000000000000000000600052601260045260246000fd5b7f67616d65206973207374696c6c20696e20706c61790000000000000000000000600082015250565b7f796f7520617265206e6f74207468652077696e6e657200000000000000000000600082015250565b7f4e6f7420656e6f75676820746f2062757920746865206b65792873293a204b6560008201527f7920707269636520697320696e6372656173696e6720717569636b6c792e205460208201527f72792072656672657368696e6720746865207061676520616e6420717569636b60408201527f6c79207375626d697474696e67206b657920707572636861736520616761696e60608201527f2e00000000000000000000000000000000000000000000000000000000000000608082015250565b7f746865726520697320616c726561647920612077696e6e657200000000000000600082015250565b7f736f7272792068756d616e73206f6e6c79000000000000000000000000000000600082015250565b7f596f752068617665206e6f206469767669657320746f20636c61696d00000000600082015250565b7f796f7520616c726561647920766f7465642e0000000000000000000000000000600082015250565b7f4e6f206d6f6e657920696e206a61636b706f7400000000000000000000000000600082015250565b7f796f75206172656e27742074686520646576656c6f706572206f66207468697360008201527f20636f6e74726163742e00000000000000000000000000000000000000000000602082015250565b7f796f75206e65656420746f20627579206174206c65617374206f6e65206b657960008201527f20746f20766f74652e0000000000000000000000000000000000000000000000602082015250565b7f47616d65206973206f76657220616e6420706f6c6c73206861766520636c6f7360008201527f6564000000000000000000000000000000000000000000000000000000000000602082015250565b611db381611a37565b8114611dbe57600080fd5b50565b611dca81611a49565b8114611dd557600080fd5b50565b611de181611a75565b8114611dec57600080fd5b5056fea2646970667358221220989b3e818609e4df01eea7206a93ccd8ccb9cac4fc825b5f73795f94d26467b764736f6c63430008040033",
  "linkReferences": {},
  "deployedLinkReferences": {}
}