{
  "_format": "hh-sol-artifact-1",
  "contractName": "MevGG",
  "sourceName": "contracts/FomoOE.sol",
  "abi": [
    {
      "inputs": [
        {
          "internalType": "uint256",
          "name": "_startTime",
          "type": "uint256"
        },
        {
          "internalType": "uint256",
          "name": "_increment",
          "type": "uint256"
        },
        {
          "internalType": "uint256",
          "name": "_keyPrice",
          "type": "uint256"
        }
      ],
      "stateMutability": "nonpayable",
      "type": "constructor"
    },
    {
      "anonymous": false,
      "inputs": [
        {
          "indexed": false,
          "internalType": "uint256",
          "name": "_amount",
          "type": "uint256"
        },
        {
          "indexed": false,
          "internalType": "address",
          "name": "_winning",
          "type": "address"
        }
      ],
      "name": "keysPurchased",
      "type": "event"
    },
    {
      "inputs": [],
      "name": "balanceReceived",
      "outputs": [
        {
          "internalType": "uint256",
          "name": "",
          "type": "uint256"
        }
      ],
      "stateMutability": "view",
      "type": "function"
    },
    {
      "inputs": [],
      "name": "counter",
      "outputs": [
        {
          "internalType": "uint256",
          "name": "",
          "type": "uint256"
        }
      ],
      "stateMutability": "view",
      "type": "function"
    },
    {
      "inputs": [],
      "name": "developer",
      "outputs": [
        {
          "internalType": "address",
          "name": "",
          "type": "address"
        }
      ],
      "stateMutability": "view",
      "type": "function"
    },
    {
      "inputs": [],
      "name": "developerOnePercent",
      "outputs": [
        {
          "internalType": "uint256",
          "name": "",
          "type": "uint256"
        }
      ],
      "stateMutability": "view",
      "type": "function"
    },
    {
      "inputs": [
        {
          "internalType": "address",
          "name": "_developerAddress",
          "type": "address"
        }
      ],
      "name": "developerOnePercentAllocation",
      "outputs": [],
      "stateMutability": "nonpayable",
      "type": "function"
    },
    {
      "inputs": [],
      "name": "divPool",
      "outputs": [
        {
          "internalType": "uint256",
          "name": "",
          "type": "uint256"
        }
      ],
      "stateMutability": "view",
      "type": "function"
    },
    {
      "inputs": [
        {
          "internalType": "address",
          "name": "",
          "type": "address"
        }
      ],
      "name": "divTracker",
      "outputs": [
        {
          "internalType": "uint256",
          "name": "_keyBalance",
          "type": "uint256"
        },
        {
          "internalType": "uint256",
          "name": "_divBalance",
          "type": "uint256"
        },
        {
          "internalType": "uint256",
          "name": "_withdrawnAmount",
          "type": "uint256"
        }
      ],
      "stateMutability": "view",
      "type": "function"
    },
    {
      "inputs": [],
      "name": "getTimeLeft",
      "outputs": [
        {
          "internalType": "uint256",
          "name": "",
          "type": "uint256"
        }
      ],
      "stateMutability": "view",
      "type": "function"
    },
    {
      "inputs": [],
      "name": "getWinner",
      "outputs": [
        {
          "internalType": "address",
          "name": "",
          "type": "address"
        }
      ],
      "stateMutability": "view",
      "type": "function"
    },
    {
      "inputs": [],
      "name": "giveToDeveloper",
      "outputs": [
        {
          "internalType": "uint256",
          "name": "",
          "type": "uint256"
        }
      ],
      "stateMutability": "view",
      "type": "function"
    },
    {
      "inputs": [],
      "name": "giveToJackpot",
      "outputs": [
        {
          "internalType": "uint256",
          "name": "",
          "type": "uint256"
        }
      ],
      "stateMutability": "view",
      "type": "function"
    },
    {
      "inputs": [],
      "name": "increment",
      "outputs": [
        {
          "internalType": "uint256",
          "name": "",
          "type": "uint256"
        }
      ],
      "stateMutability": "view",
      "type": "function"
    },
    {
      "inputs": [],
      "name": "incrementCounter",
      "outputs": [
        {
          "internalType": "uint256",
          "name": "",
          "type": "uint256"
        }
      ],
      "stateMutability": "payable",
      "type": "function"
    },
    {
      "inputs": [],
      "name": "jackpot",
      "outputs": [
        {
          "internalType": "uint256",
          "name": "",
          "type": "uint256"
        }
      ],
      "stateMutability": "view",
      "type": "function"
    },
    {
      "inputs": [],
      "name": "jackpotPayout",
      "outputs": [],
      "stateMutability": "nonpayable",
      "type": "function"
    },
    {
      "inputs": [],
      "name": "keyPrice",
      "outputs": [
        {
          "internalType": "uint256",
          "name": "",
          "type": "uint256"
        }
      ],
      "stateMutability": "view",
      "type": "function"
    },
    {
      "inputs": [],
      "name": "keyPurchases",
      "outputs": [
        {
          "internalType": "uint256",
          "name": "",
          "type": "uint256"
        }
      ],
      "stateMutability": "view",
      "type": "function"
    },
    {
      "inputs": [],
      "name": "multiplier",
      "outputs": [
        {
          "internalType": "uint256",
          "name": "",
          "type": "uint256"
        }
      ],
      "stateMutability": "view",
      "type": "function"
    },
    {
      "inputs": [
        {
          "internalType": "uint256",
          "name": "_amount",
          "type": "uint256"
        }
      ],
      "name": "purchaseKeys",
      "outputs": [],
      "stateMutability": "payable",
      "type": "function"
    },
    {
      "inputs": [],
      "name": "startTime",
      "outputs": [
        {
          "internalType": "uint256",
          "name": "",
          "type": "uint256"
        }
      ],
      "stateMutability": "view",
      "type": "function"
    },
    {
      "inputs": [],
      "name": "timeLeft",
      "outputs": [
        {
          "internalType": "uint256",
          "name": "",
          "type": "uint256"
        }
      ],
      "stateMutability": "view",
      "type": "function"
    },
    {
      "inputs": [],
      "name": "totalKeys",
      "outputs": [
        {
          "internalType": "uint256",
          "name": "",
          "type": "uint256"
        }
      ],
      "stateMutability": "view",
      "type": "function"
    },
    {
      "inputs": [],
      "name": "totalTime",
      "outputs": [
        {
          "internalType": "uint256",
          "name": "",
          "type": "uint256"
        }
      ],
      "stateMutability": "view",
      "type": "function"
    },
    {
      "inputs": [
        {
          "internalType": "address",
          "name": "_userAddress",
          "type": "address"
        }
      ],
      "name": "updateDivvies",
      "outputs": [
        {
          "internalType": "uint256",
          "name": "",
          "type": "uint256"
        }
      ],
      "stateMutability": "view",
      "type": "function"
    },
    {
      "inputs": [],
      "name": "whoWon",
      "outputs": [
        {
          "internalType": "address",
          "name": "winner",
          "type": "address"
        }
      ],
      "stateMutability": "view",
      "type": "function"
    },
    {
      "inputs": [],
      "name": "withdrawDivvies",
      "outputs": [],
      "stateMutability": "nonpayable",
      "type": "function"
    }
  ],
  "bytecode": "0x608060405260006009556064600a5534801561001a57600080fd5b50604051610d0b380380610d0b8339810160408190526100399161005c565b600080546001600160a01b03191633179055600492909255600b5560095561008a565b60008060006060848603121561007157600080fd5b8351925060208401519150604084015190509250925092565b610c72806100996000396000f3fe6080604052600436106101a15760003560e01c806378c3171f116100e157806392c5c06e1161008a578063ca4b208b11610064578063ca4b208b14610400578063d09de08a14610420578063d20bff0214610436578063e5618fa91461044b57600080fd5b806392c5c06e146103b5578063acf7084a146103cb578063c7e284b8146103eb57600080fd5b806382f96499116100bb57806382f964991461036b5780638b80016b146103815780638e7ea5b21461039757600080fd5b806378c3171f1461032c57806378e979251461033f5780637c2be5dd1461035557600080fd5b806352a90c421161014e5780635b34b966116101285780635b34b966146102d857806361bc221a146102e057806369a5ede3146102f65780636b31ee011461031657600080fd5b806352a90c421461025557806355fcbbff1461026b57806358533e0a146102c257600080fd5b80631d6e6f081161017f5780631d6e6f08146101fb5780631ebe585d14610228578063488bdabc1461023f57600080fd5b806310e56973146101a65780631300a6d1146101cf5780631b3ed722146101e5575b600080fd5b3480156101b257600080fd5b506101bc60095481565b6040519081526020015b60405180910390f35b3480156101db57600080fd5b506101bc60065481565b3480156101f157600080fd5b506101bc600a5481565b34801561020757600080fd5b50610210610461565b6040516001600160a01b0390911681526020016101c6565b34801561023457600080fd5b5061023d610482565b005b34801561024b57600080fd5b506101bc600c5481565b34801561026157600080fd5b506101bc60085481565b34801561027757600080fd5b506102a7610286366004610b6d565b60116020526000908152604090208054600182015460029092015490919083565b604080519384526020840192909252908201526060016101c6565b3480156102ce57600080fd5b506101bc60055481565b6101bc6105a2565b3480156102ec57600080fd5b506101bc60105481565b34801561030257600080fd5b5061023d610311366004610b6d565b6105c4565b34801561032257600080fd5b506101bc600f5481565b61023d61033a366004610b9d565b6106dd565b34801561034b57600080fd5b506101bc60045481565b34801561036157600080fd5b506101bc600e5481565b34801561037757600080fd5b506101bc60035481565b34801561038d57600080fd5b506101bc60015481565b3480156103a357600080fd5b506007546001600160a01b0316610210565b3480156103c157600080fd5b506101bc600d5481565b3480156103d757600080fd5b506101bc6103e6366004610b6d565b61095e565b3480156103f757600080fd5b506101bc6109de565b34801561040c57600080fd5b50600054610210906001600160a01b031681565b34801561042c57600080fd5b506101bc600b5481565b34801561044257600080fd5b5061023d610a14565b34801561045757600080fd5b506101bc60025481565b600061046b6109de565b61047f57506007546001600160a01b031690565b90565b600c54339060009081906104995760009150610511565b600e54336000908152601160205260409020546104b69190610bcc565b33600090815260116020526040902060020154600c54919250906104da9083610beb565b6104e49190610c0d565b3360009081526011602052604081206002018054929450849290919061050b908490610c24565b90915550505b600082116105665760405162461bcd60e51b815260206004820152601c60248201527f596f752068617665206e6f206469767669657320746f20636c61696d0000000060448201526064015b60405180910390fd5b6040516001600160a01b0384169083156108fc029084906000818181858888f1935050505015801561059c573d6000803e3d6000fd5b50505050565b60006001601060008282546105b79190610c24565b9091555050601054919050565b6000546001600160a01b031633146106445760405162461bcd60e51b815260206004820152602a60248201527f796f75206172656e27742074686520646576656c6f706572206f66207468697360448201527f20636f6e74726163742e00000000000000000000000000000000000000000000606482015260840161055d565b61064c6109de565b156106995760405162461bcd60e51b815260206004820152601560248201527f67616d65206973207374696c6c20696e20706c61790000000000000000000000604482015260640161055d565b60015460405182916001600160a01b0383169181156108fc0291906000818181858888f193505050501580156106d3573d6000803e3d6000fd5b5050600060015550565b600c5415806106ee57506005600d54105b156106fb576106fb610b5b565b60006107056109de565b116107525760405162461bcd60e51b815260206004820152601960248201527f746865726520697320616c726561647920612077696e6e657200000000000000604482015260640161055d565b806009546107609190610bcc565b3410156107af5760405162461bcd60e51b815260206004820152601c60248201527f4e6f7420656e6f75676820746f2062757920746865206b657928732900000000604482015260640161055d565b60006107bc346064610bcc565b905060006107cc61271083610beb565b905060006107da8234610c0d565b905060006107e9600283610beb565b905082600160008282546107fd9190610c24565b9250508190555080600f60008282546108169190610c24565b9091555061082690508183610c0d565b600e60008282546108379190610c24565b9091555050336000908152601160205260408120805487929061085b908490610c24565b9250508190555084600c60008282546108749190610c24565b9091555050600554610887904290610c0d565b6004546108949190610c0d565b600b546108a19087610bcc565b11156108b4576108af610b5b565b6108d8565b600b546108c19086610bcc565b600560008282546108d29190610c24565b90915550505b6001600d60008282546108eb9190610c24565b9091555050600780547fffffffffffffffffffffffff000000000000000000000000000000000000000016339081179091556040805187815260208101929092527fc9cdc97fa2223a1523db8444b75a4978bdc4b7371c256194188681e6a1bcd73b910160405180910390a15050505050565b6000806000600c546000141561097757600091506109d7565b600e546001600160a01b03851660009081526011602052604090205461099d9190610bcc565b6001600160a01b038516600090815260116020526040902060020154600c54919250906109ca9083610beb565b6109d49190610c0d565b91505b5092915050565b6000600c54600014156109f2575060045490565b4260055410610a0e5742600554610a099190610c0d565b905090565b50600090565b610a1c6109de565b15610a695760405162461bcd60e51b815260206004820152601560248201527f67616d65206973207374696c6c20696e20706c61790000000000000000000000604482015260640161055d565b6000600f5411610abb5760405162461bcd60e51b815260206004820152601360248201527f4e6f206d6f6e657920696e206a61636b706f7400000000000000000000000000604482015260640161055d565b6007546001600160a01b03163314610b155760405162461bcd60e51b815260206004820152601660248201527f796f7520617265206e6f74207468652077696e6e657200000000000000000000604482015260640161055d565b600754600f546040516001600160a01b0390921691829180156108fc02916000818181858888f19350505050158015610b52573d6000803e3d6000fd5b50506000600f55565b600454610b689042610c24565b600555565b600060208284031215610b7f57600080fd5b81356001600160a01b0381168114610b9657600080fd5b9392505050565b600060208284031215610baf57600080fd5b5035919050565b634e487b7160e01b600052601160045260246000fd5b6000816000190483118215151615610be657610be6610bb6565b500290565b600082610c0857634e487b7160e01b600052601260045260246000fd5b500490565b600082821015610c1f57610c1f610bb6565b500390565b60008219821115610c3757610c37610bb6565b50019056fea264697066735822122045cf313d309da9c0ffff79ea5ae750d0108dfaa6ea2f662bd9de05868981bdf064736f6c634300080a0033",
  "linkReferences": {},
  "deployedLinkReferences": {}
}