{
  "_format": "hh-sol-artifact-1",
  "contractName": "MevGG",
  "sourceName": "contracts/MevGG.sol",
  "abi": [
    {
      "inputs": [
        {
          "internalType": "uint256",
          "name": "_startTime",
          "type": "uint256"
        },
        {
          "internalType": "uint256",
          "name": "_increment",
          "type": "uint256"
        },
        {
          "internalType": "uint256",
          "name": "_keyPrice",
          "type": "uint256"
        }
      ],
      "stateMutability": "nonpayable",
      "type": "constructor"
    },
    {
      "inputs": [],
      "name": "ApprovalCallerNotOwnerNorApproved",
      "type": "error"
    },
    {
      "inputs": [],
      "name": "ApprovalQueryForNonexistentToken",
      "type": "error"
    },
    {
      "inputs": [],
      "name": "ApprovalToCurrentOwner",
      "type": "error"
    },
    {
      "inputs": [],
      "name": "ApproveToCaller",
      "type": "error"
    },
    {
      "inputs": [],
      "name": "BalanceQueryForZeroAddress",
      "type": "error"
    },
    {
      "inputs": [],
      "name": "GameActive",
      "type": "error"
    },
    {
      "inputs": [],
      "name": "JackpotEmpty",
      "type": "error"
    },
    {
      "inputs": [],
      "name": "MintToZeroAddress",
      "type": "error"
    },
    {
      "inputs": [],
      "name": "MintZeroQuantity",
      "type": "error"
    },
    {
      "inputs": [],
      "name": "NoDivviesToClaim",
      "type": "error"
    },
    {
      "inputs": [],
      "name": "NotDeveloper",
      "type": "error"
    },
    {
      "inputs": [],
      "name": "NotWinner",
      "type": "error"
    },
    {
      "inputs": [],
      "name": "OwnerQueryForNonexistentToken",
      "type": "error"
    },
    {
      "inputs": [],
      "name": "TransferCallerNotOwnerNorApproved",
      "type": "error"
    },
    {
      "inputs": [],
      "name": "TransferFromIncorrectOwner",
      "type": "error"
    },
    {
      "inputs": [],
      "name": "TransferToNonERC721ReceiverImplementer",
      "type": "error"
    },
    {
      "inputs": [],
      "name": "TransferToZeroAddress",
      "type": "error"
    },
    {
      "inputs": [],
      "name": "WinnerAlreadyDeclared",
      "type": "error"
    },
    {
      "inputs": [],
      "name": "WrongPaymentAmount",
      "type": "error"
    },
    {
      "anonymous": false,
      "inputs": [
        {
          "indexed": true,
          "internalType": "address",
          "name": "owner",
          "type": "address"
        },
        {
          "indexed": true,
          "internalType": "address",
          "name": "approved",
          "type": "address"
        },
        {
          "indexed": true,
          "internalType": "uint256",
          "name": "tokenId",
          "type": "uint256"
        }
      ],
      "name": "Approval",
      "type": "event"
    },
    {
      "anonymous": false,
      "inputs": [
        {
          "indexed": true,
          "internalType": "address",
          "name": "owner",
          "type": "address"
        },
        {
          "indexed": true,
          "internalType": "address",
          "name": "operator",
          "type": "address"
        },
        {
          "indexed": false,
          "internalType": "bool",
          "name": "approved",
          "type": "bool"
        }
      ],
      "name": "ApprovalForAll",
      "type": "event"
    },
    {
      "anonymous": false,
      "inputs": [
        {
          "indexed": true,
          "internalType": "address",
          "name": "from",
          "type": "address"
        },
        {
          "indexed": true,
          "internalType": "address",
          "name": "to",
          "type": "address"
        },
        {
          "indexed": true,
          "internalType": "uint256",
          "name": "tokenId",
          "type": "uint256"
        }
      ],
      "name": "Transfer",
      "type": "event"
    },
    {
      "anonymous": false,
      "inputs": [
        {
          "indexed": false,
          "internalType": "uint256",
          "name": "_amount",
          "type": "uint256"
        },
        {
          "indexed": false,
          "internalType": "address",
          "name": "_winning",
          "type": "address"
        }
      ],
      "name": "keysPurchased",
      "type": "event"
    },
    {
      "inputs": [
        {
          "internalType": "address",
          "name": "to",
          "type": "address"
        },
        {
          "internalType": "uint256",
          "name": "tokenId",
          "type": "uint256"
        }
      ],
      "name": "approve",
      "outputs": [],
      "stateMutability": "nonpayable",
      "type": "function"
    },
    {
      "inputs": [
        {
          "internalType": "address",
          "name": "owner",
          "type": "address"
        }
      ],
      "name": "balanceOf",
      "outputs": [
        {
          "internalType": "uint256",
          "name": "",
          "type": "uint256"
        }
      ],
      "stateMutability": "view",
      "type": "function"
    },
    {
      "inputs": [],
      "name": "balanceReceived",
      "outputs": [
        {
          "internalType": "uint256",
          "name": "",
          "type": "uint256"
        }
      ],
      "stateMutability": "view",
      "type": "function"
    },
    {
      "inputs": [],
      "name": "counter",
      "outputs": [
        {
          "internalType": "uint256",
          "name": "",
          "type": "uint256"
        }
      ],
      "stateMutability": "view",
      "type": "function"
    },
    {
      "inputs": [],
      "name": "developer",
      "outputs": [
        {
          "internalType": "address",
          "name": "",
          "type": "address"
        }
      ],
      "stateMutability": "view",
      "type": "function"
    },
    {
      "inputs": [],
      "name": "developerOnePercent",
      "outputs": [
        {
          "internalType": "uint256",
          "name": "",
          "type": "uint256"
        }
      ],
      "stateMutability": "view",
      "type": "function"
    },
    {
      "inputs": [
        {
          "internalType": "address",
          "name": "_developerAddress",
          "type": "address"
        }
      ],
      "name": "developerOnePercentAllocation",
      "outputs": [],
      "stateMutability": "nonpayable",
      "type": "function"
    },
    {
      "inputs": [],
      "name": "divPool",
      "outputs": [
        {
          "internalType": "uint256",
          "name": "",
          "type": "uint256"
        }
      ],
      "stateMutability": "view",
      "type": "function"
    },
    {
      "inputs": [
        {
          "internalType": "address",
          "name": "",
          "type": "address"
        }
      ],
      "name": "divTracker",
      "outputs": [
        {
          "internalType": "uint256",
          "name": "_keyBalance",
          "type": "uint256"
        },
        {
          "internalType": "uint256",
          "name": "_divBalance",
          "type": "uint256"
        },
        {
          "internalType": "uint256",
          "name": "_withdrawnAmount",
          "type": "uint256"
        }
      ],
      "stateMutability": "view",
      "type": "function"
    },
    {
      "inputs": [
        {
          "internalType": "uint256",
          "name": "tokenId",
          "type": "uint256"
        }
      ],
      "name": "getApproved",
      "outputs": [
        {
          "internalType": "address",
          "name": "",
          "type": "address"
        }
      ],
      "stateMutability": "view",
      "type": "function"
    },
    {
      "inputs": [
        {
          "internalType": "address",
          "name": "_userAddress",
          "type": "address"
        }
      ],
      "name": "getClaimableDivvies",
      "outputs": [
        {
          "internalType": "uint256",
          "name": "",
          "type": "uint256"
        }
      ],
      "stateMutability": "view",
      "type": "function"
    },
    {
      "inputs": [],
      "name": "getTimeLeft",
      "outputs": [
        {
          "internalType": "uint256",
          "name": "",
          "type": "uint256"
        }
      ],
      "stateMutability": "view",
      "type": "function"
    },
    {
      "inputs": [],
      "name": "getTotalKeysPurchased",
      "outputs": [
        {
          "internalType": "uint256",
          "name": "",
          "type": "uint256"
        }
      ],
      "stateMutability": "view",
      "type": "function"
    },
    {
      "inputs": [],
      "name": "getWinner",
      "outputs": [
        {
          "internalType": "address",
          "name": "",
          "type": "address"
        }
      ],
      "stateMutability": "view",
      "type": "function"
    },
    {
      "inputs": [],
      "name": "giveToDeveloper",
      "outputs": [
        {
          "internalType": "uint256",
          "name": "",
          "type": "uint256"
        }
      ],
      "stateMutability": "view",
      "type": "function"
    },
    {
      "inputs": [],
      "name": "giveToJackpot",
      "outputs": [
        {
          "internalType": "uint256",
          "name": "",
          "type": "uint256"
        }
      ],
      "stateMutability": "view",
      "type": "function"
    },
    {
      "inputs": [],
      "name": "increment",
      "outputs": [
        {
          "internalType": "uint256",
          "name": "",
          "type": "uint256"
        }
      ],
      "stateMutability": "view",
      "type": "function"
    },
    {
      "inputs": [],
      "name": "incrementCounter",
      "outputs": [
        {
          "internalType": "uint256",
          "name": "",
          "type": "uint256"
        }
      ],
      "stateMutability": "payable",
      "type": "function"
    },
    {
      "inputs": [
        {
          "internalType": "address",
          "name": "owner",
          "type": "address"
        },
        {
          "internalType": "address",
          "name": "operator",
          "type": "address"
        }
      ],
      "name": "isApprovedForAll",
      "outputs": [
        {
          "internalType": "bool",
          "name": "",
          "type": "bool"
        }
      ],
      "stateMutability": "view",
      "type": "function"
    },
    {
      "inputs": [],
      "name": "jackpot",
      "outputs": [
        {
          "internalType": "uint256",
          "name": "",
          "type": "uint256"
        }
      ],
      "stateMutability": "view",
      "type": "function"
    },
    {
      "inputs": [],
      "name": "jackpotPayout",
      "outputs": [],
      "stateMutability": "nonpayable",
      "type": "function"
    },
    {
      "inputs": [],
      "name": "keyPrice",
      "outputs": [
        {
          "internalType": "uint256",
          "name": "",
          "type": "uint256"
        }
      ],
      "stateMutability": "view",
      "type": "function"
    },
    {
      "inputs": [],
      "name": "multiplier",
      "outputs": [
        {
          "internalType": "uint256",
          "name": "",
          "type": "uint256"
        }
      ],
      "stateMutability": "view",
      "type": "function"
    },
    {
      "inputs": [],
      "name": "name",
      "outputs": [
        {
          "internalType": "string",
          "name": "",
          "type": "string"
        }
      ],
      "stateMutability": "view",
      "type": "function"
    },
    {
      "inputs": [
        {
          "internalType": "address",
          "name": "owner",
          "type": "address"
        }
      ],
      "name": "numberMinted",
      "outputs": [
        {
          "internalType": "uint256",
          "name": "",
          "type": "uint256"
        }
      ],
      "stateMutability": "view",
      "type": "function"
    },
    {
      "inputs": [
        {
          "internalType": "uint256",
          "name": "tokenId",
          "type": "uint256"
        }
      ],
      "name": "ownerOf",
      "outputs": [
        {
          "internalType": "address",
          "name": "",
          "type": "address"
        }
      ],
      "stateMutability": "view",
      "type": "function"
    },
    {
      "inputs": [
        {
          "internalType": "uint256",
          "name": "_numKeys",
          "type": "uint256"
        }
      ],
      "name": "purchaseKeys",
      "outputs": [],
      "stateMutability": "payable",
      "type": "function"
    },
    {
      "inputs": [],
      "name": "renderer",
      "outputs": [
        {
          "internalType": "contract Renderer",
          "name": "",
          "type": "address"
        }
      ],
      "stateMutability": "view",
      "type": "function"
    },
    {
      "inputs": [
        {
          "internalType": "address",
          "name": "from",
          "type": "address"
        },
        {
          "internalType": "address",
          "name": "to",
          "type": "address"
        },
        {
          "internalType": "uint256",
          "name": "tokenId",
          "type": "uint256"
        }
      ],
      "name": "safeTransferFrom",
      "outputs": [],
      "stateMutability": "nonpayable",
      "type": "function"
    },
    {
      "inputs": [
        {
          "internalType": "address",
          "name": "from",
          "type": "address"
        },
        {
          "internalType": "address",
          "name": "to",
          "type": "address"
        },
        {
          "internalType": "uint256",
          "name": "tokenId",
          "type": "uint256"
        },
        {
          "internalType": "bytes",
          "name": "_data",
          "type": "bytes"
        }
      ],
      "name": "safeTransferFrom",
      "outputs": [],
      "stateMutability": "nonpayable",
      "type": "function"
    },
    {
      "inputs": [
        {
          "internalType": "address",
          "name": "operator",
          "type": "address"
        },
        {
          "internalType": "bool",
          "name": "approved",
          "type": "bool"
        }
      ],
      "name": "setApprovalForAll",
      "outputs": [],
      "stateMutability": "nonpayable",
      "type": "function"
    },
    {
      "inputs": [
        {
          "internalType": "contract Renderer",
          "name": "_renderer",
          "type": "address"
        }
      ],
      "name": "setRenderer",
      "outputs": [],
      "stateMutability": "nonpayable",
      "type": "function"
    },
    {
      "inputs": [],
      "name": "startTime",
      "outputs": [
        {
          "internalType": "uint256",
          "name": "",
          "type": "uint256"
        }
      ],
      "stateMutability": "view",
      "type": "function"
    },
    {
      "inputs": [
        {
          "internalType": "bytes4",
          "name": "interfaceId",
          "type": "bytes4"
        }
      ],
      "name": "supportsInterface",
      "outputs": [
        {
          "internalType": "bool",
          "name": "",
          "type": "bool"
        }
      ],
      "stateMutability": "view",
      "type": "function"
    },
    {
      "inputs": [],
      "name": "symbol",
      "outputs": [
        {
          "internalType": "string",
          "name": "",
          "type": "string"
        }
      ],
      "stateMutability": "view",
      "type": "function"
    },
    {
      "inputs": [],
      "name": "timeLeft",
      "outputs": [
        {
          "internalType": "uint256",
          "name": "",
          "type": "uint256"
        }
      ],
      "stateMutability": "view",
      "type": "function"
    },
    {
      "inputs": [
        {
          "internalType": "uint256",
          "name": "tokenId",
          "type": "uint256"
        }
      ],
      "name": "tokenURI",
      "outputs": [
        {
          "internalType": "string",
          "name": "",
          "type": "string"
        }
      ],
      "stateMutability": "view",
      "type": "function"
    },
    {
      "inputs": [],
      "name": "totalKeys",
      "outputs": [
        {
          "internalType": "uint256",
          "name": "",
          "type": "uint256"
        }
      ],
      "stateMutability": "view",
      "type": "function"
    },
    {
      "inputs": [],
      "name": "totalSupply",
      "outputs": [
        {
          "internalType": "uint256",
          "name": "",
          "type": "uint256"
        }
      ],
      "stateMutability": "view",
      "type": "function"
    },
    {
      "inputs": [],
      "name": "totalTime",
      "outputs": [
        {
          "internalType": "uint256",
          "name": "",
          "type": "uint256"
        }
      ],
      "stateMutability": "view",
      "type": "function"
    },
    {
      "inputs": [
        {
          "internalType": "address",
          "name": "from",
          "type": "address"
        },
        {
          "internalType": "address",
          "name": "to",
          "type": "address"
        },
        {
          "internalType": "uint256",
          "name": "tokenId",
          "type": "uint256"
        }
      ],
      "name": "transferFrom",
      "outputs": [],
      "stateMutability": "nonpayable",
      "type": "function"
    },
    {
      "inputs": [],
      "name": "whoWon",
      "outputs": [
        {
          "internalType": "address",
          "name": "winner",
          "type": "address"
        }
      ],
      "stateMutability": "view",
      "type": "function"
    },
    {
      "inputs": [],
      "name": "withdrawDivvies",
      "outputs": [],
      "stateMutability": "nonpayable",
      "type": "function"
    }
  ],
  "bytecode": "0x6080604052600060105560646011553480156200001b57600080fd5b5060405162002109380380620021098339810160408190526200003e9162000183565b60408051808201825260058152646d6576676760d81b602080830191825283518085019094526003845262714ccf60e91b9084015281519192916200008691600291620000dd565b5080516200009c906003906020840190620000dd565b50600080555050600980546001600160a01b03191633179055600b83905560128290556010819055620000d08342620001b2565b600c555062000215915050565b828054620000eb90620001d9565b90600052602060002090601f0160209004810192826200010f57600085556200015a565b82601f106200012a57805160ff19168380011785556200015a565b828001600101855582156200015a579182015b828111156200015a5782518255916020019190600101906200013d565b50620001689291506200016c565b5090565b5b808211156200016857600081556001016200016d565b6000806000606084860312156200019957600080fd5b8351925060208401519150604084015190509250925092565b60008219821115620001d457634e487b7160e01b600052601160045260246000fd5b500190565b600181811c90821680620001ee57607f821691505b6020821081036200020f57634e487b7160e01b600052602260045260246000fd5b50919050565b611ee480620002256000396000f3fe6080604052600436106102dc5760003560e01c80636b31ee0111610184578063a2b0ff42116100d6578063ca4b208b1161008a578063dc33e68111610064578063dc33e68114610765578063e5618fa914610785578063e985e9c51461079b57600080fd5b8063ca4b208b1461071a578063d09de08a1461073a578063d20bff021461075057600080fd5b8063b88d4fde116100bb578063b88d4fde146106c5578063c7e284b8146106e5578063c87b56dd146106fa57600080fd5b8063a2b0ff4214610690578063a90765c2146106b057600080fd5b806382f96499116101385780638e7ea5b2116101125780638e7ea5b21461063d57806395d89b411461065b578063a22cb4651461067057600080fd5b806382f96499146105f15780638ada6b0f146106075780638b80016b1461062757600080fd5b806378c3171f1161016957806378c3171f146105b257806378e97925146105c55780637c2be5dd146105db57600080fd5b80636b31ee011461057c57806370a082311461059257600080fd5b806323b872dd1161023d57806356d3163d116101f157806361bc221a116101cb57806361bc221a146105265780636352211e1461053c57806369a5ede31461055c57600080fd5b806356d3163d146104e857806358533e0a146105085780635b34b9661461051e57600080fd5b8063488bdabc11610222578063488bdabc1461046557806352a90c421461047b57806355fcbbff1461049157600080fd5b806323b872dd1461042557806342842e0e1461044557600080fd5b80631300a6d1116102945780631b3ed722116102795780631b3ed722146103e55780631d6e6f08146103fb5780631ebe585d1461041057600080fd5b80631300a6d1146103b657806318160ddd146103cc57600080fd5b8063081812fc116102c5578063081812fc14610338578063095ea7b31461037057806310e569731461039257600080fd5b806301ffc9a7146102e157806306fdde0314610316575b600080fd5b3480156102ed57600080fd5b506103016102fc366004611a4d565b6107e4565b60405190151581526020015b60405180910390f35b34801561032257600080fd5b5061032b610881565b60405161030d9190611ac9565b34801561034457600080fd5b50610358610353366004611adc565b610913565b6040516001600160a01b03909116815260200161030d565b34801561037c57600080fd5b5061039061038b366004611b0a565b610970565b005b34801561039e57600080fd5b506103a860105481565b60405190815260200161030d565b3480156103c257600080fd5b506103a8600d5481565b3480156103d857600080fd5b50600154600054036103a8565b3480156103f157600080fd5b506103a860115481565b34801561040757600080fd5b50610358610a2f565b34801561041c57600080fd5b50610390610a69565b34801561043157600080fd5b50610390610440366004611b36565b610b0d565b34801561045157600080fd5b50610390610460366004611b36565b610b18565b34801561047157600080fd5b506103a860135481565b34801561048757600080fd5b506103a8600f5481565b34801561049d57600080fd5b506104cd6104ac366004611b77565b60196020526000908152604090208054600182015460029092015490919083565b6040805193845260208401929092529082015260600161030d565b3480156104f457600080fd5b50610390610503366004611b77565b610b33565b34801561051457600080fd5b506103a8600c5481565b6103a8610b8d565b34801561053257600080fd5b506103a860165481565b34801561054857600080fd5b50610358610557366004611adc565b610baf565b34801561056857600080fd5b50610390610577366004611b77565b610bc1565b34801561058857600080fd5b506103a860155481565b34801561059e57600080fd5b506103a86105ad366004611b77565b610c56565b6103906105c0366004611adc565b610cbe565b3480156105d157600080fd5b506103a8600b5481565b3480156105e757600080fd5b506103a860145481565b3480156105fd57600080fd5b506103a8600a5481565b34801561061357600080fd5b50600854610358906001600160a01b031681565b34801561063357600080fd5b506103a860175481565b34801561064957600080fd5b50600e546001600160a01b0316610358565b34801561066757600080fd5b5061032b610ef3565b34801561067c57600080fd5b5061039061068b366004611b94565b610f02565b34801561069c57600080fd5b506103a86106ab366004611b77565b610fb0565b3480156106bc57600080fd5b506013546103a8565b3480156106d157600080fd5b506103906106e0366004611c41565b61102d565b3480156106f157600080fd5b506103a861107e565b34801561070657600080fd5b5061032b610715366004611adc565b6110b3565b34801561072657600080fd5b50600954610358906001600160a01b031681565b34801561074657600080fd5b506103a860125481565b34801561075c57600080fd5b506103906111d8565b34801561077157600080fd5b506103a8610780366004611b77565b6112c4565b34801561079157600080fd5b506103a860185481565b3480156107a757600080fd5b506103016107b6366004611cf0565b6001600160a01b03918216600090815260076020908152604080832093909416825291909152205460ff1690565b60006001600160e01b031982167f80ac58cd00000000000000000000000000000000000000000000000000000000148061084757506001600160e01b031982167f5b5e139f00000000000000000000000000000000000000000000000000000000145b8061087b57507f01ffc9a7000000000000000000000000000000000000000000000000000000006001600160e01b03198316145b92915050565b60606002805461089090611d1e565b80601f01602080910402602001604051908101604052809291908181526020018280546108bc90611d1e565b80156109095780601f106108de57610100808354040283529160200191610909565b820191906000526020600020905b8154815290600101906020018083116108ec57829003601f168201915b5050505050905090565b600061091e826112f8565b610954576040517fcf4700e400000000000000000000000000000000000000000000000000000000815260040160405180910390fd5b506000908152600660205260409020546001600160a01b031690565b600061097b82610baf565b9050806001600160a01b0316836001600160a01b0316036109c8576040517f943f7b8c00000000000000000000000000000000000000000000000000000000815260040160405180910390fd5b336001600160a01b038216148015906109e857506109e681336107b6565b155b15610a1f576040517fcfb3b94200000000000000000000000000000000000000000000000000000000815260040160405180910390fd5b610a2a838383611323565b505050565b6000610a3961107e565b600003610a505750600e546001600160a01b031690565b60405163ad9a658360e01b815260040160405180910390fd5b6000610a7433610fb0565b905060008111610ab0576040517fd4ba8f3900000000000000000000000000000000000000000000000000000000815260040160405180910390fd5b3360008181526019602052604081206002018054849290610ad2908490611d6e565b90915550506040516001600160a01b0382169083156108fc029084906000818181858888f19350505050158015610a2a573d6000803e3d6000fd5b610a2a83838361138c565b610a2a8383836040518060200160405280600081525061102d565b6009546001600160a01b03163314610b5e57604051638858596360e01b815260040160405180910390fd5b6008805473ffffffffffffffffffffffffffffffffffffffff19166001600160a01b0392909216919091179055565b6000600160166000828254610ba29190611d6e565b9091555050601654919050565b6000610bba826115c8565b5192915050565b6009546001600160a01b03163314610bec57604051638858596360e01b815260040160405180910390fd5b610bf461107e565b15610c125760405163ad9a658360e01b815260040160405180910390fd5b60175460405182916001600160a01b0383169181156108fc0291906000818181858888f19350505050158015610c4c573d6000803e3d6000fd5b5050600060175550565b60006001600160a01b038216610c98576040517f8f4eb60400000000000000000000000000000000000000000000000000000000815260040160405180910390fd5b506001600160a01b031660009081526005602052604090205467ffffffffffffffff1690565b610cc661107e565b600003610cff576040517fe682345e00000000000000000000000000000000000000000000000000000000815260040160405180910390fd5b80601054610d0d9190611d86565b3414610d45576040517f204e2b9000000000000000000000000000000000000000000000000000000000815260040160405180910390fd5b6000610d52346064611d86565b90506000610d6261271083611da5565b90506000610d708234611dc7565b90506000610d7f600283611da5565b90508260176000828254610d939190611d6e565b925050819055508060156000828254610dac9190611d6e565b90915550610dbc90508183611dc7565b60146000828254610dcd9190611d6e565b90915550503360009081526019602052604081208054879290610df1908490611d6e565b925050819055508460136000828254610e0a9190611d6e565b9091555050600c54610e1d904290611dc7565b600b54610e2a9190611dc7565b601254610e379087611d86565b1180610e4557506005601354105b15610e5757610e526116fd565b610e7b565b601254610e649086611d86565b600c6000828254610e759190611d6e565b90915550505b600e805473ffffffffffffffffffffffffffffffffffffffff191633908117909155610ea7908661170f565b600e54604080518781526001600160a01b0390921660208301527fc9cdc97fa2223a1523db8444b75a4978bdc4b7371c256194188681e6a1bcd73b910160405180910390a15050505050565b60606003805461089090611d1e565b336001600160a01b03831603610f44576040517fb06307db00000000000000000000000000000000000000000000000000000000815260040160405180910390fd5b3360008181526007602090815260408083206001600160a01b03871680855290835292819020805460ff191686151590811790915590519081529192917f17307eab39ab6107e8899845ad3d59bd9653f200f220920489ca2b5937696c31910160405180910390a35050565b6000601354600003610fc457506000919050565b6014546001600160a01b03831660009081526019602052604081205490918291610fee9190611d86565b6001600160a01b0385166000908152601960205260409020600201546013549192509061101b9083611da5565b6110259190611dc7565b949350505050565b61103884848461138c565b6001600160a01b0383163b1515801561105a57506110588484848461172d565b155b15611078576040516368d2bf6b60e11b815260040160405180910390fd5b50505050565b60006013546000036110915750600b5490565b42600c54106110ad5742600c546110a89190611dc7565b905090565b50600090565b60606110be826112f8565b61114e576040517f08c379a000000000000000000000000000000000000000000000000000000000815260206004820152602f60248201527f4552433732314d657461646174613a2055524920717565727920666f72206e6f60448201527f6e6578697374656e7420746f6b656e0000000000000000000000000000000000606482015260840160405180910390fd5b6008546040517fc321118c000000000000000000000000000000000000000000000000000000008152600481018490526001600160a01b039091169063c321118c90602401600060405180830381865afa1580156111b0573d6000803e3d6000fd5b505050506040513d6000823e601f3d908101601f1916820160405261087b9190810190611dde565b6111e061107e565b156111fe5760405163ad9a658360e01b815260040160405180910390fd5b60155460000361123a576040517fd28086e500000000000000000000000000000000000000000000000000000000815260040160405180910390fd5b600e546001600160a01b0316331461127e576040517f618c724200000000000000000000000000000000000000000000000000000000815260040160405180910390fd5b600e546015546040516001600160a01b0390921691829180156108fc02916000818181858888f193505050501580156112bb573d6000803e3d6000fd5b50506000601555565b6001600160a01b03811660009081526005602052604081205468010000000000000000900467ffffffffffffffff1661087b565b600080548210801561087b575050600090815260046020526040902054600160e01b900460ff161590565b600082815260066020526040808220805473ffffffffffffffffffffffffffffffffffffffff19166001600160a01b0387811691821790925591518593918516917f8c5be1e5ebec7d5bd14f71427d1e84f3dd0314c0f7b2291e5b200ac8c7c3b92591a4505050565b6000611397826115c8565b9050836001600160a01b031681600001516001600160a01b0316146113e8576040517fa114810000000000000000000000000000000000000000000000000000000000815260040160405180910390fd5b6000336001600160a01b0386161480611406575061140685336107b6565b8061142157503361141684610913565b6001600160a01b0316145b90508061145a576040517f59c896be00000000000000000000000000000000000000000000000000000000815260040160405180910390fd5b6001600160a01b03841661149a576040517fea553b3400000000000000000000000000000000000000000000000000000000815260040160405180910390fd5b6114a660008487611323565b6001600160a01b038581166000908152600560209081526040808320805467ffffffffffffffff1980821667ffffffffffffffff92831660001901831617909255898616808652838620805493841693831660019081018416949094179055898652600490945282852080546001600160e01b031916909417600160a01b4290921691909102178355870180845292208054919390911661157c57600054821461157c578054602086015167ffffffffffffffff16600160a01b026001600160e01b03199091166001600160a01b038a16171781555b50505082846001600160a01b0316866001600160a01b03167fddf252ad1be2c89b69c2b068fc378daa952ba7f163c4a11628f55a4df523b3ef60405160405180910390a45b5050505050565b6040805160608101825260008082526020820181905291810191909152816000548110156116cb57600081815260046020908152604091829020825160608101845290546001600160a01b0381168252600160a01b810467ffffffffffffffff1692820192909252600160e01b90910460ff161515918101829052906116c95780516001600160a01b03161561165f579392505050565b5060001901600081815260046020908152604091829020825160608101845290546001600160a01b038116808352600160a01b820467ffffffffffffffff1693830193909352600160e01b900460ff16151592810192909252156116c4579392505050565b61165f565b505b6040517fdf2d9b4200000000000000000000000000000000000000000000000000000000815260040160405180910390fd5b600b5461170a9042611d6e565b600c55565b611729828260405180602001604052806000815250611818565b5050565b604051630a85bd0160e11b81526000906001600160a01b0385169063150b7a0290611762903390899088908890600401611e55565b6020604051808303816000875af192505050801561179d575060408051601f3d908101601f1916820190925261179a91810190611e91565b60015b6117fb573d8080156117cb576040519150601f19603f3d011682016040523d82523d6000602084013e6117d0565b606091505b5080516000036117f3576040516368d2bf6b60e11b815260040160405180910390fd5b805181602001fd5b6001600160e01b031916630a85bd0160e11b149050949350505050565b610a2a83838360016000546001600160a01b038516611863576040517f2e07630000000000000000000000000000000000000000000000000000000000815260040160405180910390fd5b8360000361189d576040517fb562e8dd00000000000000000000000000000000000000000000000000000000815260040160405180910390fd5b6001600160a01b038516600081815260056020908152604080832080547fffffffffffffffffffffffffffffffff00000000000000000000000000000000811667ffffffffffffffff8083168c0181169182176801000000000000000067ffffffffffffffff1990941690921783900481168c01811690920217909155858452600490925290912080546001600160e01b031916909217600160a01b42909216919091021790558080850183801561195e57506001600160a01b0387163b15155b156119e6575b60405182906001600160a01b038916906000907fddf252ad1be2c89b69c2b068fc378daa952ba7f163c4a11628f55a4df523b3ef908290a46119af600088848060010195508861172d565b6119cc576040516368d2bf6b60e11b815260040160405180910390fd5b8082036119645782600054146119e157600080fd5b611a2b565b5b6040516001830192906001600160a01b038916906000907fddf252ad1be2c89b69c2b068fc378daa952ba7f163c4a11628f55a4df523b3ef908290a48082036119e7575b506000556115c1565b6001600160e01b031981168114611a4a57600080fd5b50565b600060208284031215611a5f57600080fd5b8135611a6a81611a34565b9392505050565b60005b83811015611a8c578181015183820152602001611a74565b838111156110785750506000910152565b60008151808452611ab5816020860160208601611a71565b601f01601f19169290920160200192915050565b602081526000611a6a6020830184611a9d565b600060208284031215611aee57600080fd5b5035919050565b6001600160a01b0381168114611a4a57600080fd5b60008060408385031215611b1d57600080fd5b8235611b2881611af5565b946020939093013593505050565b600080600060608486031215611b4b57600080fd5b8335611b5681611af5565b92506020840135611b6681611af5565b929592945050506040919091013590565b600060208284031215611b8957600080fd5b8135611a6a81611af5565b60008060408385031215611ba757600080fd5b8235611bb281611af5565b915060208301358015158114611bc757600080fd5b809150509250929050565b634e487b7160e01b600052604160045260246000fd5b604051601f8201601f1916810167ffffffffffffffff81118282101715611c1157611c11611bd2565b604052919050565b600067ffffffffffffffff821115611c3357611c33611bd2565b50601f01601f191660200190565b60008060008060808587031215611c5757600080fd5b8435611c6281611af5565b93506020850135611c7281611af5565b925060408501359150606085013567ffffffffffffffff811115611c9557600080fd5b8501601f81018713611ca657600080fd5b8035611cb9611cb482611c19565b611be8565b818152886020838501011115611cce57600080fd5b8160208401602083013760006020838301015280935050505092959194509250565b60008060408385031215611d0357600080fd5b8235611d0e81611af5565b91506020830135611bc781611af5565b600181811c90821680611d3257607f821691505b602082108103611d5257634e487b7160e01b600052602260045260246000fd5b50919050565b634e487b7160e01b600052601160045260246000fd5b60008219821115611d8157611d81611d58565b500190565b6000816000190483118215151615611da057611da0611d58565b500290565b600082611dc257634e487b7160e01b600052601260045260246000fd5b500490565b600082821015611dd957611dd9611d58565b500390565b600060208284031215611df057600080fd5b815167ffffffffffffffff811115611e0757600080fd5b8201601f81018413611e1857600080fd5b8051611e26611cb482611c19565b818152856020838501011115611e3b57600080fd5b611e4c826020830160208601611a71565b95945050505050565b60006001600160a01b03808716835280861660208401525083604083015260806060830152611e876080830184611a9d565b9695505050505050565b600060208284031215611ea357600080fd5b8151611a6a81611a3456fea2646970667358221220bf410d3663766b261122be4e2c83428c8f1b3cde566952c7a543db647a41766764736f6c634300080d0033",
  "linkReferences": {},
  "deployedLinkReferences": {}
}