{
  "_format": "hh-sol-artifact-1",
  "contractName": "MevGG",
  "sourceName": "contracts/MevGG.sol",
  "abi": [
    {
      "inputs": [
        {
          "internalType": "uint256",
          "name": "_startTime",
          "type": "uint256"
        },
        {
          "internalType": "uint256",
          "name": "_increment",
          "type": "uint256"
        },
        {
          "internalType": "uint256",
          "name": "_keyPrice",
          "type": "uint256"
        }
      ],
      "stateMutability": "nonpayable",
      "type": "constructor"
    },
    {
      "inputs": [],
      "name": "ApprovalCallerNotOwnerNorApproved",
      "type": "error"
    },
    {
      "inputs": [],
      "name": "ApprovalQueryForNonexistentToken",
      "type": "error"
    },
    {
      "inputs": [],
      "name": "ApprovalToCurrentOwner",
      "type": "error"
    },
    {
      "inputs": [],
      "name": "ApproveToCaller",
      "type": "error"
    },
    {
      "inputs": [],
      "name": "BalanceQueryForZeroAddress",
      "type": "error"
    },
    {
      "inputs": [],
      "name": "GameActive",
      "type": "error"
    },
    {
      "inputs": [],
      "name": "JackpotEmpty",
      "type": "error"
    },
    {
      "inputs": [],
      "name": "MintToZeroAddress",
      "type": "error"
    },
    {
      "inputs": [],
      "name": "MintZeroQuantity",
      "type": "error"
    },
    {
      "inputs": [],
      "name": "NoDivviesToClaim",
      "type": "error"
    },
    {
      "inputs": [],
      "name": "NotDeveloper",
      "type": "error"
    },
    {
      "inputs": [],
      "name": "NotWinner",
      "type": "error"
    },
    {
      "inputs": [],
      "name": "OwnerQueryForNonexistentToken",
      "type": "error"
    },
    {
      "inputs": [],
      "name": "TransferCallerNotOwnerNorApproved",
      "type": "error"
    },
    {
      "inputs": [],
      "name": "TransferFromIncorrectOwner",
      "type": "error"
    },
    {
      "inputs": [],
      "name": "TransferToNonERC721ReceiverImplementer",
      "type": "error"
    },
    {
      "inputs": [],
      "name": "TransferToZeroAddress",
      "type": "error"
    },
    {
      "inputs": [],
      "name": "URIQueryForNonexistentToken",
      "type": "error"
    },
    {
      "inputs": [],
      "name": "WinnerAlreadyDeclared",
      "type": "error"
    },
    {
      "inputs": [],
      "name": "WrongPaymentAmount",
      "type": "error"
    },
    {
      "anonymous": false,
      "inputs": [
        {
          "indexed": true,
          "internalType": "address",
          "name": "owner",
          "type": "address"
        },
        {
          "indexed": true,
          "internalType": "address",
          "name": "approved",
          "type": "address"
        },
        {
          "indexed": true,
          "internalType": "uint256",
          "name": "tokenId",
          "type": "uint256"
        }
      ],
      "name": "Approval",
      "type": "event"
    },
    {
      "anonymous": false,
      "inputs": [
        {
          "indexed": true,
          "internalType": "address",
          "name": "owner",
          "type": "address"
        },
        {
          "indexed": true,
          "internalType": "address",
          "name": "operator",
          "type": "address"
        },
        {
          "indexed": false,
          "internalType": "bool",
          "name": "approved",
          "type": "bool"
        }
      ],
      "name": "ApprovalForAll",
      "type": "event"
    },
    {
      "anonymous": false,
      "inputs": [
        {
          "indexed": true,
          "internalType": "address",
          "name": "from",
          "type": "address"
        },
        {
          "indexed": true,
          "internalType": "address",
          "name": "to",
          "type": "address"
        },
        {
          "indexed": true,
          "internalType": "uint256",
          "name": "tokenId",
          "type": "uint256"
        }
      ],
      "name": "Transfer",
      "type": "event"
    },
    {
      "anonymous": false,
      "inputs": [
        {
          "indexed": false,
          "internalType": "uint256",
          "name": "_amount",
          "type": "uint256"
        },
        {
          "indexed": false,
          "internalType": "address",
          "name": "_winning",
          "type": "address"
        }
      ],
      "name": "keysPurchased",
      "type": "event"
    },
    {
      "inputs": [
        {
          "internalType": "address",
          "name": "to",
          "type": "address"
        },
        {
          "internalType": "uint256",
          "name": "tokenId",
          "type": "uint256"
        }
      ],
      "name": "approve",
      "outputs": [],
      "stateMutability": "nonpayable",
      "type": "function"
    },
    {
      "inputs": [
        {
          "internalType": "address",
          "name": "owner",
          "type": "address"
        }
      ],
      "name": "balanceOf",
      "outputs": [
        {
          "internalType": "uint256",
          "name": "",
          "type": "uint256"
        }
      ],
      "stateMutability": "view",
      "type": "function"
    },
    {
      "inputs": [],
      "name": "counter",
      "outputs": [
        {
          "internalType": "uint256",
          "name": "",
          "type": "uint256"
        }
      ],
      "stateMutability": "view",
      "type": "function"
    },
    {
      "inputs": [],
      "name": "developer",
      "outputs": [
        {
          "internalType": "address",
          "name": "",
          "type": "address"
        }
      ],
      "stateMutability": "view",
      "type": "function"
    },
    {
      "inputs": [],
      "name": "developerPercent",
      "outputs": [
        {
          "internalType": "uint256",
          "name": "",
          "type": "uint256"
        }
      ],
      "stateMutability": "view",
      "type": "function"
    },
    {
      "inputs": [
        {
          "internalType": "address",
          "name": "_developerAddress",
          "type": "address"
        }
      ],
      "name": "developerPercentAllocation",
      "outputs": [],
      "stateMutability": "nonpayable",
      "type": "function"
    },
    {
      "inputs": [],
      "name": "divPool",
      "outputs": [
        {
          "internalType": "uint256",
          "name": "",
          "type": "uint256"
        }
      ],
      "stateMutability": "view",
      "type": "function"
    },
    {
      "inputs": [
        {
          "internalType": "address",
          "name": "",
          "type": "address"
        }
      ],
      "name": "divTracker",
      "outputs": [
        {
          "internalType": "uint256",
          "name": "_keyBalance",
          "type": "uint256"
        },
        {
          "internalType": "uint256",
          "name": "_divBalance",
          "type": "uint256"
        },
        {
          "internalType": "uint256",
          "name": "_withdrawnAmount",
          "type": "uint256"
        }
      ],
      "stateMutability": "view",
      "type": "function"
    },
    {
      "inputs": [],
      "name": "gameHasStarted",
      "outputs": [
        {
          "internalType": "bool",
          "name": "",
          "type": "bool"
        }
      ],
      "stateMutability": "view",
      "type": "function"
    },
    {
      "inputs": [
        {
          "internalType": "uint256",
          "name": "tokenId",
          "type": "uint256"
        }
      ],
      "name": "getApproved",
      "outputs": [
        {
          "internalType": "address",
          "name": "",
          "type": "address"
        }
      ],
      "stateMutability": "view",
      "type": "function"
    },
    {
      "inputs": [
        {
          "internalType": "address",
          "name": "_userAddress",
          "type": "address"
        }
      ],
      "name": "getClaimableDivvies",
      "outputs": [
        {
          "internalType": "uint256",
          "name": "",
          "type": "uint256"
        }
      ],
      "stateMutability": "view",
      "type": "function"
    },
    {
      "inputs": [],
      "name": "getTimeLeft",
      "outputs": [
        {
          "internalType": "uint256",
          "name": "",
          "type": "uint256"
        }
      ],
      "stateMutability": "view",
      "type": "function"
    },
    {
      "inputs": [],
      "name": "getTotalKeysPurchased",
      "outputs": [
        {
          "internalType": "uint256",
          "name": "",
          "type": "uint256"
        }
      ],
      "stateMutability": "view",
      "type": "function"
    },
    {
      "inputs": [],
      "name": "getWinner",
      "outputs": [
        {
          "internalType": "address",
          "name": "",
          "type": "address"
        }
      ],
      "stateMutability": "view",
      "type": "function"
    },
    {
      "inputs": [],
      "name": "increment",
      "outputs": [
        {
          "internalType": "uint256",
          "name": "",
          "type": "uint256"
        }
      ],
      "stateMutability": "view",
      "type": "function"
    },
    {
      "inputs": [],
      "name": "incrementCounter",
      "outputs": [
        {
          "internalType": "uint256",
          "name": "",
          "type": "uint256"
        }
      ],
      "stateMutability": "payable",
      "type": "function"
    },
    {
      "inputs": [
        {
          "internalType": "address",
          "name": "owner",
          "type": "address"
        },
        {
          "internalType": "address",
          "name": "operator",
          "type": "address"
        }
      ],
      "name": "isApprovedForAll",
      "outputs": [
        {
          "internalType": "bool",
          "name": "",
          "type": "bool"
        }
      ],
      "stateMutability": "view",
      "type": "function"
    },
    {
      "inputs": [],
      "name": "jackpot",
      "outputs": [
        {
          "internalType": "uint256",
          "name": "",
          "type": "uint256"
        }
      ],
      "stateMutability": "view",
      "type": "function"
    },
    {
      "inputs": [],
      "name": "jackpotPayout",
      "outputs": [],
      "stateMutability": "nonpayable",
      "type": "function"
    },
    {
      "inputs": [],
      "name": "keyPrice",
      "outputs": [
        {
          "internalType": "uint256",
          "name": "",
          "type": "uint256"
        }
      ],
      "stateMutability": "view",
      "type": "function"
    },
    {
      "inputs": [],
      "name": "multiplier",
      "outputs": [
        {
          "internalType": "uint256",
          "name": "",
          "type": "uint256"
        }
      ],
      "stateMutability": "view",
      "type": "function"
    },
    {
      "inputs": [],
      "name": "name",
      "outputs": [
        {
          "internalType": "string",
          "name": "",
          "type": "string"
        }
      ],
      "stateMutability": "view",
      "type": "function"
    },
    {
      "inputs": [
        {
          "internalType": "address",
          "name": "owner",
          "type": "address"
        }
      ],
      "name": "numberMinted",
      "outputs": [
        {
          "internalType": "uint256",
          "name": "",
          "type": "uint256"
        }
      ],
      "stateMutability": "view",
      "type": "function"
    },
    {
      "inputs": [
        {
          "internalType": "uint256",
          "name": "tokenId",
          "type": "uint256"
        }
      ],
      "name": "ownerOf",
      "outputs": [
        {
          "internalType": "address",
          "name": "",
          "type": "address"
        }
      ],
      "stateMutability": "view",
      "type": "function"
    },
    {
      "inputs": [
        {
          "internalType": "uint256",
          "name": "_numKeys",
          "type": "uint256"
        }
      ],
      "name": "purchaseKeys",
      "outputs": [
        {
          "internalType": "uint256",
          "name": "",
          "type": "uint256"
        }
      ],
      "stateMutability": "payable",
      "type": "function"
    },
    {
      "inputs": [],
      "name": "renderer",
      "outputs": [
        {
          "internalType": "contract Renderer",
          "name": "",
          "type": "address"
        }
      ],
      "stateMutability": "view",
      "type": "function"
    },
    {
      "inputs": [
        {
          "internalType": "address",
          "name": "from",
          "type": "address"
        },
        {
          "internalType": "address",
          "name": "to",
          "type": "address"
        },
        {
          "internalType": "uint256",
          "name": "tokenId",
          "type": "uint256"
        }
      ],
      "name": "safeTransferFrom",
      "outputs": [],
      "stateMutability": "nonpayable",
      "type": "function"
    },
    {
      "inputs": [
        {
          "internalType": "address",
          "name": "from",
          "type": "address"
        },
        {
          "internalType": "address",
          "name": "to",
          "type": "address"
        },
        {
          "internalType": "uint256",
          "name": "tokenId",
          "type": "uint256"
        },
        {
          "internalType": "bytes",
          "name": "_data",
          "type": "bytes"
        }
      ],
      "name": "safeTransferFrom",
      "outputs": [],
      "stateMutability": "nonpayable",
      "type": "function"
    },
    {
      "inputs": [
        {
          "internalType": "address",
          "name": "operator",
          "type": "address"
        },
        {
          "internalType": "bool",
          "name": "approved",
          "type": "bool"
        }
      ],
      "name": "setApprovalForAll",
      "outputs": [],
      "stateMutability": "nonpayable",
      "type": "function"
    },
    {
      "inputs": [
        {
          "internalType": "contract Renderer",
          "name": "_renderer",
          "type": "address"
        }
      ],
      "name": "setRenderer",
      "outputs": [],
      "stateMutability": "nonpayable",
      "type": "function"
    },
    {
      "inputs": [],
      "name": "startTime",
      "outputs": [
        {
          "internalType": "uint256",
          "name": "",
          "type": "uint256"
        }
      ],
      "stateMutability": "view",
      "type": "function"
    },
    {
      "inputs": [
        {
          "internalType": "bytes4",
          "name": "interfaceId",
          "type": "bytes4"
        }
      ],
      "name": "supportsInterface",
      "outputs": [
        {
          "internalType": "bool",
          "name": "",
          "type": "bool"
        }
      ],
      "stateMutability": "view",
      "type": "function"
    },
    {
      "inputs": [],
      "name": "symbol",
      "outputs": [
        {
          "internalType": "string",
          "name": "",
          "type": "string"
        }
      ],
      "stateMutability": "view",
      "type": "function"
    },
    {
      "inputs": [
        {
          "internalType": "uint256",
          "name": "tokenId",
          "type": "uint256"
        }
      ],
      "name": "tokenURI",
      "outputs": [
        {
          "internalType": "string",
          "name": "",
          "type": "string"
        }
      ],
      "stateMutability": "view",
      "type": "function"
    },
    {
      "inputs": [],
      "name": "totalKeys",
      "outputs": [
        {
          "internalType": "uint256",
          "name": "",
          "type": "uint256"
        }
      ],
      "stateMutability": "view",
      "type": "function"
    },
    {
      "inputs": [],
      "name": "totalSupply",
      "outputs": [
        {
          "internalType": "uint256",
          "name": "",
          "type": "uint256"
        }
      ],
      "stateMutability": "view",
      "type": "function"
    },
    {
      "inputs": [],
      "name": "totalTime",
      "outputs": [
        {
          "internalType": "uint256",
          "name": "",
          "type": "uint256"
        }
      ],
      "stateMutability": "view",
      "type": "function"
    },
    {
      "inputs": [
        {
          "internalType": "address",
          "name": "from",
          "type": "address"
        },
        {
          "internalType": "address",
          "name": "to",
          "type": "address"
        },
        {
          "internalType": "uint256",
          "name": "tokenId",
          "type": "uint256"
        }
      ],
      "name": "transferFrom",
      "outputs": [],
      "stateMutability": "nonpayable",
      "type": "function"
    },
    {
      "inputs": [],
      "name": "whoWon",
      "outputs": [
        {
          "internalType": "address",
          "name": "winner",
          "type": "address"
        }
      ],
      "stateMutability": "view",
      "type": "function"
    },
    {
      "inputs": [],
      "name": "withdrawDivvies",
      "outputs": [],
      "stateMutability": "nonpayable",
      "type": "function"
    }
  ],
  "bytecode": "0x60806040526000600d556064600e553480156200001b57600080fd5b50604051620020dd380380620020dd8339810160408190526200003e916200018c565b60408051808201825260058152646d6576676760d81b602080830191825283518085019094526003845262714ccf60e91b9084015281519192916200008691600291620000e6565b5080516200009c906003906020840190620000e6565b50600080555050600980546001600160a01b03191633179055600a839055600f829055600d819055620000d08342620001bb565b600b555050600c805460ff19169055506200021e565b828054620000f490620001e2565b90600052602060002090601f01602090048101928262000118576000855562000163565b82601f106200013357805160ff191683800117855562000163565b8280016001018555821562000163579182015b828111156200016357825182559160200191906001019062000146565b506200017192915062000175565b5090565b5b8082111562000171576000815560010162000176565b600080600060608486031215620001a257600080fd5b8351925060208401519150604084015190509250925092565b60008219821115620001dd57634e487b7160e01b600052601160045260246000fd5b500190565b600181811c90821680620001f757607f821691505b6020821081036200021857634e487b7160e01b600052602260045260246000fd5b50919050565b611eaf806200022e6000396000f3fe6080604052600436106102bb5760003560e01c80636352211e1161016e578063a2b0ff42116100cb578063ca4b208b1161007f578063d20bff0211610064578063d20bff021461070c578063dc33e68114610721578063e985e9c51461074157600080fd5b8063ca4b208b146106d6578063d09de08a146106f657600080fd5b8063b88d4fde116100b0578063b88d4fde14610681578063c7e284b8146106a1578063c87b56dd146106b657600080fd5b8063a2b0ff421461064c578063a90765c21461066c57600080fd5b80637c2be5dd116101225780638e7ea5b2116101075780638e7ea5b2146105f457806395d89b4114610617578063a22cb4651461062c57600080fd5b80637c2be5dd146105be5780638ada6b0f146105d457600080fd5b806370a082311161015357806370a082311461057557806378c3171f1461059557806378e97925146105a857600080fd5b80636352211e1461053f5780636b31ee011461055f57600080fd5b806323b872dd1161021c57806355fcbbff116101d057806358533e0a116101b557806358533e0a1461050b5780635b34b9661461052157806361bc221a1461052957600080fd5b806355fcbbff1461049457806356d3163d146104eb57600080fd5b8063300bf2e111610201578063300bf2e11461044857806342842e0e1461045e578063488bdabc1461047e57600080fd5b806323b872dd14610408578063262746501461042857600080fd5b806318160ddd116102735780631b3ed722116102585780631b3ed722146103c85780631d6e6f08146103de5780631ebe585d146103f357600080fd5b806318160ddd14610395578063198615c0146103ae57600080fd5b8063081812fc116102a4578063081812fc14610317578063095ea7b31461034f57806310e569731461037157600080fd5b806301ffc9a7146102c057806306fdde03146102f5575b600080fd5b3480156102cc57600080fd5b506102e06102db366004611a18565b61078a565b60405190151581526020015b60405180910390f35b34801561030157600080fd5b5061030a610827565b6040516102ec9190611a94565b34801561032357600080fd5b50610337610332366004611aa7565b6108b9565b6040516001600160a01b0390911681526020016102ec565b34801561035b57600080fd5b5061036f61036a366004611ad5565b610916565b005b34801561037d57600080fd5b50610387600d5481565b6040519081526020016102ec565b3480156103a157600080fd5b5060015460005403610387565b3480156103ba57600080fd5b50600c546102e09060ff1681565b3480156103d457600080fd5b50610387600e5481565b3480156103ea57600080fd5b506103376109ce565b3480156103ff57600080fd5b5061036f610a0d565b34801561041457600080fd5b5061036f610423366004611b01565b610ab1565b34801561043457600080fd5b5061036f610443366004611b42565b610abc565b34801561045457600080fd5b5061038760145481565b34801561046a57600080fd5b5061036f610479366004611b01565b610b51565b34801561048a57600080fd5b5061038760105481565b3480156104a057600080fd5b506104d06104af366004611b42565b60156020526000908152604090208054600182015460029092015490919083565b604080519384526020840192909252908201526060016102ec565b3480156104f757600080fd5b5061036f610506366004611b42565b610b6c565b34801561051757600080fd5b50610387600b5481565b610387610bc6565b34801561053557600080fd5b5061038760135481565b34801561054b57600080fd5b5061033761055a366004611aa7565b610be8565b34801561056b57600080fd5b5061038760125481565b34801561058157600080fd5b50610387610590366004611b42565b610bfa565b6103876105a3366004611aa7565b610c62565b3480156105b457600080fd5b50610387600a5481565b3480156105ca57600080fd5b5061038760115481565b3480156105e057600080fd5b50600854610337906001600160a01b031681565b34801561060057600080fd5b50600c5461010090046001600160a01b0316610337565b34801561062357600080fd5b5061030a610ec2565b34801561063857600080fd5b5061036f610647366004611b5f565b610ed1565b34801561065857600080fd5b50610387610667366004611b42565b610f7f565b34801561067857600080fd5b50601054610387565b34801561068d57600080fd5b5061036f61069c366004611c0c565b610ffc565b3480156106ad57600080fd5b50610387611046565b3480156106c257600080fd5b5061030a6106d1366004611aa7565b61107b565b3480156106e257600080fd5b50600954610337906001600160a01b031681565b34801561070257600080fd5b50610387600f5481565b34801561071857600080fd5b5061036f6111a0565b34801561072d57600080fd5b5061038761073c366004611b42565b611295565b34801561074d57600080fd5b506102e061075c366004611cbb565b6001600160a01b03918216600090815260076020908152604080832093909416825291909152205460ff1690565b60006001600160e01b031982167f80ac58cd0000000000000000000000000000000000000000000000000000000014806107ed57506001600160e01b031982167f5b5e139f00000000000000000000000000000000000000000000000000000000145b8061082157507f01ffc9a7000000000000000000000000000000000000000000000000000000006001600160e01b03198316145b92915050565b60606002805461083690611ce9565b80601f016020809104026020016040519081016040528092919081815260200182805461086290611ce9565b80156108af5780601f10610884576101008083540402835291602001916108af565b820191906000526020600020905b81548152906001019060200180831161089257829003601f168201915b5050505050905090565b60006108c4826112c9565b6108fa576040517fcf4700e400000000000000000000000000000000000000000000000000000000815260040160405180910390fd5b506000908152600660205260409020546001600160a01b031690565b600061092182610be8565b9050806001600160a01b0316836001600160a01b03160361096e576040517f943f7b8c00000000000000000000000000000000000000000000000000000000815260040160405180910390fd5b336001600160a01b038216146109be57610988813361075c565b6109be576040517fcfb3b94200000000000000000000000000000000000000000000000000000000815260040160405180910390fd5b6109c98383836112f4565b505050565b60006109d8611046565b6000036109f45750600c5461010090046001600160a01b031690565b60405163ad9a658360e01b815260040160405180910390fd5b6000610a1833610f7f565b905060008111610a54576040517fd4ba8f3900000000000000000000000000000000000000000000000000000000815260040160405180910390fd5b3360008181526015602052604081206002018054849290610a76908490611d39565b90915550506040516001600160a01b0382169083156108fc029084906000818181858888f193505050501580156109c9573d6000803e3d6000fd5b6109c983838361135d565b6009546001600160a01b03163314610ae757604051638858596360e01b815260040160405180910390fd5b610aef611046565b15610b0d5760405163ad9a658360e01b815260040160405180910390fd5b60145460405182916001600160a01b0383169181156108fc0291906000818181858888f19350505050158015610b47573d6000803e3d6000fd5b5050600060145550565b6109c983838360405180602001604052806000815250610ffc565b6009546001600160a01b03163314610b9757604051638858596360e01b815260040160405180910390fd5b6008805473ffffffffffffffffffffffffffffffffffffffff19166001600160a01b0392909216919091179055565b6000600160136000828254610bdb9190611d39565b9091555050601354919050565b6000610bf382611598565b5192915050565b60006001600160a01b038216610c3c576040517f8f4eb60400000000000000000000000000000000000000000000000000000000815260040160405180910390fd5b506001600160a01b031660009081526005602052604090205467ffffffffffffffff1690565b6000610c6c611046565b600003610ca5576040517fe682345e00000000000000000000000000000000000000000000000000000000815260040160405180910390fd5b81600d54610cb39190611d51565b3414610ceb576040517f204e2b9000000000000000000000000000000000000000000000000000000000815260040160405180910390fd5b6000610cf8346064611d51565b90506000610d0861271083611d70565b90506000610d168234611d92565b90506000610d25600283611d70565b90508260146000828254610d399190611d39565b925050819055508060126000828254610d529190611d39565b90915550610d6290508183611d92565b60116000828254610d739190611d39565b90915550503360009081526015602052604081208054889290610d97908490611d39565b9091555050601054600090610dad906001611d39565b90508660106000828254610dc19190611d39565b9091555050600b54610dd4904290611d92565b600a54610de19190611d92565b600f54610dee9089611d51565b1180610dfc57506005601054105b15610e0e57610e096116cd565b610e32565b600f54610e1b9088611d51565b600b6000828254610e2c9190611d39565b90915550505b600c80547fffffffffffffffffffffff0000000000000000000000000000000000000000ff1633610100810291909117909155610e6f90886116ec565b600c54604080518981526101009092046001600160a01b031660208301527fc9cdc97fa2223a1523db8444b75a4978bdc4b7371c256194188681e6a1bcd73b910160405180910390a19695505050505050565b60606003805461083690611ce9565b336001600160a01b03831603610f13576040517fb06307db00000000000000000000000000000000000000000000000000000000815260040160405180910390fd5b3360008181526007602090815260408083206001600160a01b03871680855290835292819020805460ff191686151590811790915590519081529192917f17307eab39ab6107e8899845ad3d59bd9653f200f220920489ca2b5937696c31910160405180910390a35050565b6000601054600003610f9357506000919050565b6011546001600160a01b03831660009081526015602052604081205490918291610fbd9190611d51565b6001600160a01b03851660009081526015602052604090206002015460105491925090610fea9083611d70565b610ff49190611d92565b949350505050565b61100784848461135d565b6001600160a01b0383163b15611040576110238484848461170a565b611040576040516368d2bf6b60e11b815260040160405180910390fd5b50505050565b60006010546000036110595750600a5490565b42600b54106110755742600b546110709190611d92565b905090565b50600090565b6060611086826112c9565b611116576040517f08c379a000000000000000000000000000000000000000000000000000000000815260206004820152602f60248201527f4552433732314d657461646174613a2055524920717565727920666f72206e6f60448201527f6e6578697374656e7420746f6b656e0000000000000000000000000000000000606482015260840160405180910390fd5b6008546040517fc321118c000000000000000000000000000000000000000000000000000000008152600481018490526001600160a01b039091169063c321118c90602401600060405180830381865afa158015611178573d6000803e3d6000fd5b505050506040513d6000823e601f3d908101601f191682016040526108219190810190611da9565b6111a8611046565b156111c65760405163ad9a658360e01b815260040160405180910390fd5b601254600003611202576040517fd28086e500000000000000000000000000000000000000000000000000000000815260040160405180910390fd5b600c5461010090046001600160a01b0316331461124b576040517f618c724200000000000000000000000000000000000000000000000000000000815260040160405180910390fd5b600c546012546040516101009092046001600160a01b03169182916108fc811502916000818181858888f1935050505015801561128c573d6000803e3d6000fd5b50506000601255565b6001600160a01b03811660009081526005602052604081205468010000000000000000900467ffffffffffffffff16610821565b6000805482108015610821575050600090815260046020526040902054600160e01b900460ff161590565b600082815260066020526040808220805473ffffffffffffffffffffffffffffffffffffffff19166001600160a01b0387811691821790925591518593918516917f8c5be1e5ebec7d5bd14f71427d1e84f3dd0314c0f7b2291e5b200ac8c7c3b92591a4505050565b600061136882611598565b9050836001600160a01b031681600001516001600160a01b0316146113b9576040517fa114810000000000000000000000000000000000000000000000000000000000815260040160405180910390fd5b6000336001600160a01b03861614806113d757506113d7853361075c565b806113f25750336113e7846108b9565b6001600160a01b0316145b90508061142b576040517f59c896be00000000000000000000000000000000000000000000000000000000815260040160405180910390fd5b6001600160a01b03841661146b576040517fea553b3400000000000000000000000000000000000000000000000000000000815260040160405180910390fd5b611477600084876112f4565b6001600160a01b038581166000908152600560209081526040808320805467ffffffffffffffff1980821667ffffffffffffffff92831660001901831617909255898616808652838620805493841693831660019081018416949094179055898652600490945282852080546001600160e01b031916909417600160a01b4290921691909102178355870180845292208054919390911661154d57600054821461154d578054602086015167ffffffffffffffff16600160a01b026001600160e01b03199091166001600160a01b038a16171781555b50505082846001600160a01b0316866001600160a01b03167fddf252ad1be2c89b69c2b068fc378daa952ba7f163c4a11628f55a4df523b3ef60405160405180910390a45050505050565b60408051606081018252600080825260208201819052918101919091528160005481101561169b57600081815260046020908152604091829020825160608101845290546001600160a01b0381168252600160a01b810467ffffffffffffffff1692820192909252600160e01b90910460ff161515918101829052906116995780516001600160a01b03161561162f579392505050565b5060001901600081815260046020908152604091829020825160608101845290546001600160a01b038116808352600160a01b820467ffffffffffffffff1693830193909352600160e01b900460ff1615159281019290925215611694579392505050565b61162f565b505b6040517fdf2d9b4200000000000000000000000000000000000000000000000000000000815260040160405180910390fd5b600a546116da9042611d39565b600b55600c805460ff19166001179055565b6117068282604051806020016040528060008152506117f5565b5050565b604051630a85bd0160e11b81526000906001600160a01b0385169063150b7a029061173f903390899088908890600401611e20565b6020604051808303816000875af192505050801561177a575060408051601f3d908101601f1916820190925261177791810190611e5c565b60015b6117d8573d8080156117a8576040519150601f19603f3d011682016040523d82523d6000602084013e6117ad565b606091505b5080516000036117d0576040516368d2bf6b60e11b815260040160405180910390fd5b805181602001fd5b6001600160e01b031916630a85bd0160e11b149050949350505050565b6000546001600160a01b038416611838576040517f2e07630000000000000000000000000000000000000000000000000000000000815260040160405180910390fd5b82600003611872576040517fb562e8dd00000000000000000000000000000000000000000000000000000000815260040160405180910390fd5b6001600160a01b038416600081815260056020908152604080832080547fffffffffffffffffffffffffffffffff00000000000000000000000000000000811667ffffffffffffffff8083168b0181169182176801000000000000000067ffffffffffffffff1990941690921783900481168b01811690920217909155858452600490925290912080546001600160e01b0319168317600160a01b42909316929092029190911790558190818501903b156119aa575b60405182906001600160a01b038816906000907fddf252ad1be2c89b69c2b068fc378daa952ba7f163c4a11628f55a4df523b3ef908290a4611973600087848060010195508761170a565b611990576040516368d2bf6b60e11b815260040160405180910390fd5b8082106119285782600054146119a557600080fd5b6119ef565b5b6040516001830192906001600160a01b038816906000907fddf252ad1be2c89b69c2b068fc378daa952ba7f163c4a11628f55a4df523b3ef908290a48082106119ab575b5060009081556110409085838684565b6001600160e01b031981168114611a1557600080fd5b50565b600060208284031215611a2a57600080fd5b8135611a35816119ff565b9392505050565b60005b83811015611a57578181015183820152602001611a3f565b838111156110405750506000910152565b60008151808452611a80816020860160208601611a3c565b601f01601f19169290920160200192915050565b602081526000611a356020830184611a68565b600060208284031215611ab957600080fd5b5035919050565b6001600160a01b0381168114611a1557600080fd5b60008060408385031215611ae857600080fd5b8235611af381611ac0565b946020939093013593505050565b600080600060608486031215611b1657600080fd5b8335611b2181611ac0565b92506020840135611b3181611ac0565b929592945050506040919091013590565b600060208284031215611b5457600080fd5b8135611a3581611ac0565b60008060408385031215611b7257600080fd5b8235611b7d81611ac0565b915060208301358015158114611b9257600080fd5b809150509250929050565b634e487b7160e01b600052604160045260246000fd5b604051601f8201601f1916810167ffffffffffffffff81118282101715611bdc57611bdc611b9d565b604052919050565b600067ffffffffffffffff821115611bfe57611bfe611b9d565b50601f01601f191660200190565b60008060008060808587031215611c2257600080fd5b8435611c2d81611ac0565b93506020850135611c3d81611ac0565b925060408501359150606085013567ffffffffffffffff811115611c6057600080fd5b8501601f81018713611c7157600080fd5b8035611c84611c7f82611be4565b611bb3565b818152886020838501011115611c9957600080fd5b8160208401602083013760006020838301015280935050505092959194509250565b60008060408385031215611cce57600080fd5b8235611cd981611ac0565b91506020830135611b9281611ac0565b600181811c90821680611cfd57607f821691505b602082108103611d1d57634e487b7160e01b600052602260045260246000fd5b50919050565b634e487b7160e01b600052601160045260246000fd5b60008219821115611d4c57611d4c611d23565b500190565b6000816000190483118215151615611d6b57611d6b611d23565b500290565b600082611d8d57634e487b7160e01b600052601260045260246000fd5b500490565b600082821015611da457611da4611d23565b500390565b600060208284031215611dbb57600080fd5b815167ffffffffffffffff811115611dd257600080fd5b8201601f81018413611de357600080fd5b8051611df1611c7f82611be4565b818152856020838501011115611e0657600080fd5b611e17826020830160208601611a3c565b95945050505050565b60006001600160a01b03808716835280861660208401525083604083015260806060830152611e526080830184611a68565b9695505050505050565b600060208284031215611e6e57600080fd5b8151611a35816119ff56fea2646970667358221220ccf6a81eaa0ed33ca9bc2e1f9894932aa640caf3f74e25f9bd358e30bd4a22c764736f6c634300080d0033",
  "linkReferences": {},
  "deployedLinkReferences": {}
}