{
  "_format": "hh-sol-artifact-1",
  "contractName": "Renderer",
  "sourceName": "contracts/Renderer.sol",
  "abi": [
    {
      "inputs": [
        {
          "internalType": "uint256",
          "name": "_tokenId",
          "type": "uint256"
        }
      ],
      "name": "render",
      "outputs": [
        {
          "internalType": "string",
          "name": "",
          "type": "string"
        }
      ],
      "stateMutability": "pure",
      "type": "function"
    }
  ],
  "bytecode": "0x608060405234801561001057600080fd5b50611050806100206000396000f3fe608060405234801561001057600080fd5b506004361061002b5760003560e01c8063c321118c14610030575b600080fd5b61004361003e3660046103c2565b610059565b604051610050919061040b565b60405180910390f35b606060006040518060a00160405280606e8152602001610fad606e9139905080604051602001610089919061043e565b604051602081830303815290604052905060006100a584610101565b90506100d96100b383610132565b826040516020016100c5929190610c1f565b604051602081830303815290604052610132565b6040516020016100e99190610d62565b60405160208183030381529060405292505050919050565b606061010c82610285565b60405160200161011c9190610da7565b6040516020818303038152906040529050919050565b6060815160000361015157505060408051602081019091526000815290565b6000604051806060016040528060408152602001610f6d60409139905060006003845160026101809190610e9b565b61018a9190610ec9565b610195906004610edd565b67ffffffffffffffff8111156101ad576101ad610efc565b6040519080825280601f01601f1916602001820160405280156101d7576020820181803683370190505b509050600182016020820185865187015b80821015610243576003820191508151603f8160121c168501518453600184019350603f81600c1c168501518453600184019350603f8160061c168501518453600184019350603f81168501518453506001830192506101e8565b505060038651066001811461025f57600281146102725761027a565b603d6001830353603d600283035361027a565b603d60018303535b509195945050505050565b6060816000036102c857505060408051808201909152600181527f3000000000000000000000000000000000000000000000000000000000000000602082015290565b8160005b81156102f257806102dc81610f12565b91506102eb9050600a83610ec9565b91506102cc565b60008167ffffffffffffffff81111561030d5761030d610efc565b6040519080825280601f01601f191660200182016040528015610337576020820181803683370190505b5090505b84156103ba5761034c600183610f2b565b9150610359600a86610f42565b610364906030610e9b565b60f81b81838151811061037957610379610f56565b60200101907effffffffffffffffffffffffffffffffffffffffffffffffffffffffffffff1916908160001a9053506103b3600a86610ec9565b945061033b565b949350505050565b6000602082840312156103d457600080fd5b5035919050565b60005b838110156103f65781810151838201526020016103de565b83811115610405576000848401525b50505050565b602081526000825180602084015261042a8160408501602087016103db565b601f01601f19169190910160400192915050565b600082516104508184602087016103db565b7f3c70617468207374726f6b653d22233030303030302220643d224d31312031689083019081527f324d3134203168324d3130203268314d3136203268314d3134203468314d313560208201527f203568314d3130203768314d3135203768314d3130203868314d31332038683160408201527f4d3130203968314d313020313068314d313320313068314d313020313168314d60608201527f313320313168314d313020313268314d313020313368314d313320313368314d60808201527f313320313468314d313020313568314d313320313568314d313320313668314d60a08201527f313020313768314d3920313968314d313120323068324d313520323068314d3160c08201527f3020323168314d3820323268314d313020323268314d313320323268314d313560e08201527f20323268314d313020323368314d313320323368314d3820323468314d3135206101008201527f323468314d313420323568314d31302032366833222f3e0000000000000000006101208201527f3c70617468207374726f6b653d22233031303030302220643d224d31332031686101378201527f314d3130203568314d3130203668314d313020313468314d3820323168314d316101578201527f352032316831222f3e00000000000000000000000000000000000000000000006101778201527f3c70617468207374726f6b653d22236632643735362220643d224d31312032686101808201527f314d3131203568314d3131203968314d313120313468314d313120313868314d6101a08201527f392032346831222f3e00000000000000000000000000000000000000000000006101c08201527f3c70617468207374726f6b653d22236632643635362220643d224d31322032686101c98201527f324d3131203368324d3131203468314d3131203768314d3131203868314d31316101e98201527f20313068314d313120313168314d313120313368314d313120313568314d31316102098201527f20313668314d313120313768314d3920323068314d3920323168314d392032326102298201527f68314d392032336831222f3e00000000000000000000000000000000000000006102498201527f3c70617468207374726f6b653d22236434616130642220643d224d31342032686102558201527f324d3133203368324d3132203468324d3133203568324d3132203668344d31326102758201527f203868314d3132203968314d313220313068314d313220313168314d313220316102958201527f3268314d313220313568314d313220313668314d313220313768314d313220316102b58201527f3868314d313020313968344d313020323068314d313320323068314d313420326102d58201527f3368314d313020323468314d313320323468324d313020323568314d313320326102f58201527f356831222f3e00000000000000000000000000000000000000000000000000006103158201527f3c70617468207374726f6b653d22233030303030312220643d224d313020336861031b8201527f314d3133203768314d313020313668314d313320313868314d3134203139683161033b8201527f4d3820323068314d313320323168314d313220323468314d392032356831222f61035b8201527f3e0000000000000000000000000000000000000000000000000000000000000061037b8201527f3c70617468207374726f6b653d22233030303130302220643d224d313520336861037c8201527f314d3130203468314d3136203668314d313020313868314d3820323368314d3161039c8201527f3520323368314d313120323468314d31332032366831222f3e000000000000006103bc8201527f3c70617468207374726f6b653d22236434616230642220643d224d31322035686103d58201527f314d313220313468314d31342032306831222f3e0000000000000000000000006103f58201527f3c70617468207374726f6b653d22236633643635362220643d224d3131203668610409820152631891179f60e11b6104298201527f3c70617468207374726f6b653d22236434616130632220643d224d313220376861042d8201527f314d313220313368314d31342032326831222f3e00000000000000000000000061044d8201527f3c70617468207374726f6b653d227267626128302c312c302c302e39353239346104618201527f3131373634373035383832292220643d224d313420376831222f3e0000000000610481820152610bf1610ba2610b53610b0461049c85017f3c70617468207374726f6b653d22233030303130312220643d224d31332039688152631891179f60e11b602082015260240190565b7f3c70617468207374726f6b653d22236633643635372220643d224d313120313281527f6831222f3e000000000000000000000000000000000000000000000000000000602082015260250190565b7f3c70617468207374726f6b653d22233031303030312220643d224d313320313281527f68314d31332031376831222f3e000000000000000000000000000000000000006020820152602d0190565b7f3c70617468207374726f6b653d22236435616130642220643d224d313420323181527f68314d3131203235683222202f3e0000000000000000000000000000000000006020820152602e0190565b7f3c2f7376673e00000000000000000000000000000000000000000000000000008152600601949350505050565b7f7b226465736372697074696f6e223a224120756e69717565206b657920696e2081527f746865206772616e642067616d65206f66204d45562e20456e7469746c65732060208201527f796f7520746f206469766964656e64732066726f6d20616c6c20746865206b6560408201527f7973206d696e74656420616674657220796f752e222c2022696d616765223a2060608201527f22646174613a696d6167652f7376672b786d6c3b6261736536342c0000000000608082015260008351610cef81609b8501602088016103db565b7f222c202261747472696275746573223a20000000000000000000000000000000609b918401918201528351610d2c8160ac8401602088016103db565b7f7d0000000000000000000000000000000000000000000000000000000000000060ac929091019182015260ad01949350505050565b7f646174613a6170706c69636174696f6e2f6a736f6e3b6261736536342c000000815260008251610d9a81601d8501602087016103db565b91909101601d0192915050565b7f5b7b2274726169745f74797065223a224b6579206e756d626572222c2022766181527f6c7565223a220000000000000000000000000000000000000000000000000000602082015260008251610e058160268501602087016103db565b7f227d2c207b2274726169745f74797065223a224861726477617265222c20227660269390910192830152507f616c7565223a220000000000000000000000000000000000000000000000000060468201527f6b65790000000000000000000000000000000000000000000000000000000000604d820152605001919050565b634e487b7160e01b600052601160045260246000fd5b60008219821115610eae57610eae610e85565b500190565b634e487b7160e01b600052601260045260246000fd5b600082610ed857610ed8610eb3565b500490565b6000816000190483118215151615610ef757610ef7610e85565b500290565b634e487b7160e01b600052604160045260246000fd5b600060018201610f2457610f24610e85565b5060010190565b600082821015610f3d57610f3d610e85565b500390565b600082610f5157610f51610eb3565b500690565b634e487b7160e01b600052603260045260246000fdfe4142434445464748494a4b4c4d4e4f505152535455565758595a6162636465666768696a6b6c6d6e6f707172737475767778797a303132333435363738392b2f3c73766720786d6c6e733d22687474703a2f2f7777772e77332e6f72672f323030302f737667222076696577426f783d2230202d302e35203235203238222073686170652d72656e646572696e673d226372697370456467657322206261636b67726f756e643d2223303030223ea2646970667358221220796dae1fc9238809f11072e721ed5350e6594045c46e7270c09c1666ee8f080f64736f6c634300080d0033",
  "linkReferences": {},
  "deployedLinkReferences": {}
}